 BOOTSTRAP FOR CLEAR ,008015,022026,030040/019,001L020100   ,047054,061068,072072)0810811022                      1
 CLEAR OR BOOTSTRAP  ,008047/047046       /000H025B022100  4/061046,054061,068072,0010401040                      2
0                                                                                                         PAGE    1
0 SEQ PG LIN  LABEL  OP    OPERANDS                                            SFX CT  LOCN  INSTRUCTION TYPE  CARD A-ADDR  B-ADDR

  101         ****************************************************************
  102         *
  103         READ   EQU   001                * READ AREA                              0001
  104         PUNCH  EQU   101                * PUNCH AREA                             0101
  105         PRINT  EQU   201                * PRINT AREA                             0201
  106         *
  107         PRCPOS DCW   000                * CHAR POSITION IN PRINT AREA         3  0335                       3
  108         PUCPOS DCW   000                * CHAR POSITION IN PUNCH AREA         3  0338                       3
  109         PUNSIZ DCW   @080@              * SIZE OF PUNCH AREA                  3  0341                       3
  110         PRTSIZ DCW   @132@              * SIZE OF PRINT AREA                  3  0344                       3
  111         EOS    DCW   @'@                * END OF STRING CHAR (STRING TERM     1  0345                       3
  112         EOL    DCW   @;@                * END OF LINE CHAR                    1  0346                       3
  113         *
  114                ORG   87                                                                 0087
  115         X1     DSA   0                  * INDEX REGISTER 1                    3  0089  000                  4   000
  116                ORG   92                                                                 0092
  117         X2     DSA   0                  * INDEX REGISTER 2                    3  0094  000                  5   000
  118                ORG   97                                                                 0097
  119         X3     DSA   0                  * INDEX REGISTER 3                    3  0099  000                  6   000
  120         *
  121         * I NEED A SINGLE DIGIT FLAG - SHOULD I REPLACE THIS WITH A DA?
  122         RF     EQU   150                                                         0150
  123         *
  124                ORG   6000                                                               6000
  125         *
  126         START  NOP                                                            1  6000  N                    7
  127         *
  128         ****************************************************************
  129         *
  130                SBR   X2, 400            * SET THE STACK                       7  6001  H 094 400            7   094     400
  131                MCW   X2, X3                                                   7  6008  M 094 099            7   094     099
  132                SW    1001                                                     4  6015  , '01                7  1001
  133                MCW   @201@,1003                                               7  6019  M S0C '03            7 13203    1003
  134                SW    1004                                                     4  6026  , '04                7  1004
  135                MCW   @200@,1006                                               7  6030  M S0F '06            7 13206    1006
  136                SW    1013                                                     4  6037  , '13                8  1013
  137                MCW   @081@,1015                                               7  6041  M S0I '15            8 13209    1015
  138                SW    1034                                                     4  6048  , '34                8  1034
  139                MCW   EOS,1034                                                 7  6052  M 345 '34            8   345    1034
  140                SW    1033                                                     4  6059  , '33                8  1033
  141                MCW   @F@,1033                                                 7  6063  M S1? '33            8 13210    1033
  142                SW    1032                                                     4  6070  , '32                8  1032
  143                MCW   @E@,1032                                                 7  6074  M S1A '32            9 13211    1032
  144                SW    1031                                                     4  6081  , '31                9  1031
  145                MCW   @D@,1031                                                 7  6085  M S1B '31            9 13212    1031
  146                SW    1030                                                     4  6092  , '30                9  1030
  147                MCW   @C@,1030                                                 7  6096  M S1C '30            9 13213    1030
1                                                                                                         PAGE    2
0 SEQ PG LIN  LABEL  OP    OPERANDS                                            SFX CT  LOCN  INSTRUCTION TYPE  CARD A-ADDR  B-ADDR

  148                SW    1029                                                     4  6103  , '29                9  1029
  149                MCW   @B@,1029                                                 7  6107  M S1D '29           10 13214    1029
  150                SW    1028                                                     4  6114  , '28               10  1028
  151                MCW   @A@,1028                                                 7  6118  M S1E '28           10 13215    1028
  152                SW    1027                                                     4  6125  , '27               10  1027
  153                MCW   @9@,1027                                                 7  6129  M S1F '27           10 13216    1027
  154                SW    1026                                                     4  6136  , '26               10  1026
  155                MCW   @8@,1026                                                 7  6140  M S1G '26           11 13217    1026
  156                SW    1025                                                     4  6147  , '25               11  1025
  157                MCW   @7@,1025                                                 7  6151  M S1H '25           11 13218    1025
  158                SW    1024                                                     4  6158  , '24               11  1024
  159                MCW   @6@,1024                                                 7  6162  M S1I '24           11 13219    1024
  160                SW    1023                                                     4  6169  , '23               11  1023
  161                MCW   @5@,1023                                                 7  6173  M S2? '23           12 13220    1023
  162                SW    1022                                                     4  6180  , '22               12  1022
  163                MCW   @4@,1022                                                 7  6184  M S2A '22           12 13221    1022
  164                SW    1021                                                     4  6191  , '21               12  1021
  165                MCW   @3@,1021                                                 7  6195  M S2B '21           12 13222    1021
  166                SW    1020                                                     4  6202  , '20               12  1020
  167                MCW   @2@,1020                                                 7  6206  M S2C '20           13 13223    1020
  168                SW    1019                                                     4  6213  , '19               13  1019
  169                MCW   @1@,1019                                                 7  6217  M S2D '19           13 13224    1019
  170                SW    1018                                                     4  6224  , '18               13  1018
  171                MCW   @0@,1018                                                 7  6228  M S2E '18           13 13225    1018
  172                SW    1038                                                     4  6235  , '38               13  1038
  173                MCW   EOS,1038                                                 7  6239  M 345 '38           14   345    1038
  174                SW    1037                                                     4  6246  , '37               14  1037
  175                MCW   EOL,1037                                                 7  6250  M 346 '37           14   346    1037
  176                SW    1036                                                     4  6257  , '36               14  1036
  177                MCW   @D@,1036                                                 7  6261  M S1B '36           14 13212    1036
  178                SW    1035                                                     4  6268  , '35               14  1035
  179                MCW   @%@,1035                                                 7  6272  M S2F '35           15 13226    1035
  180                B     LRBAAA                                                   4  6279  B !2P               15 10027
  181                H                                                              1  6283  .                   15
  182         LBAAAA SBR   3&X3                                                     4  6284  H 0?3               15   003+3
  183                SW    1&X3                                                     4  6288  , 0?1               15   001+3
  184                MA    @003@,X2                                                 7  6292  # S2I 094           15 13229     094
  185         * PUSH(15997+X3:1)
  186                SW    1&X2                                                     4  6299  , 0!1               15   001+2
  187                MA    @001@,X2                                                 7  6303  # S3B 094           16 13232     094
  188                MCW   15997&X3,0&X2                                            7  6310  M IIG 0!0           16 15997+3   000+2
  189         * PUSH(EOL:1)
  190                SW    1&X2                                                     4  6317  , 0!1               16   001+2
  191                MA    @001@,X2                                                 7  6321  # S3B 094           16 13232     094
  192                MCW   EOL,0&X2                                                 7  6328  M 346 0!0           16   346     000+2
  193                C     0&X2,15999&X2                                            7  6335  C 0!0 IRI           16   000+2 15999+2
  194         * POP(1)
  195                MA    @I9I@,X2                                                 7  6342  # S3E 094           17 13235     094
  196                CW    1&X2                                                     4  6349  ) 0!1               17   001+2
  197         * POP(1)
1                                                                                                         PAGE    3
0 SEQ PG LIN  LABEL  OP    OPERANDS                                            SFX CT  LOCN  INSTRUCTION TYPE  CARD A-ADDR  B-ADDR

  198                MA    @I9I@,X2                                                 7  6353  # S3E 094           17 13235     094
  199                CW    1&X2                                                     4  6360  ) 0!1               17   001+2
  200         * PUSH(@00001@:5)
  201                SW    1&X2                                                     4  6364  , 0!1               17   001+2
  202                MA    @005@,X2                                                 7  6368  # S3H 094           17 13238     094
  203                MCW   @00001@,0&X2                                             7  6375  M S4C 0!0           18 13243     000+2
  204                BE    LVBAAA                                                   5  6382  B L9/ S             18  6391
  205                B     LWBAAA                                                   4  6387  B L9Y               18  6398
  206         LVBAAA MCW   @00000@,0&X2                                             7  6391  M S4H 0!0           18 13248     000+2
  207         LWBAAA NOP                                                            1  6398  N                   18
  208                MCS   0&X2,0&X2                                                7  6399  Z 0!0 0!0           18   000+2   000+2
  209         * POP(5)
  210                MA    @I9E@,X2                                                 7  6406  # S5A 094           18 13251     094
  211                CW    1&X2                                                     4  6413  ) 0!1               19   001+2
  212                BCE   LTBAAA,5&X2,                                             8  6417  B N5T 0!5           19  6553     005+2
  213         * PUSH(15997+X3:1)
  214                SW    1&X2                                                     4  6425  , 0!1               19   001+2
  215                MA    @001@,X2                                                 7  6429  # S3B 094           19 13232     094
  216                MCW   15997&X3,0&X2                                            7  6436  M IIG 0!0           19 15997+3   000+2
  217         * PUSH(@'03@:3)
  218                SW    1&X2                                                     4  6443  , 0!1               19   001+2
  219                MA    @003@,X2                                                 7  6447  # S2I 094           20 13229     094
  220                MCW   @'03@,0&X2                                               7  6454  M S5D 0!0           20 13254     000+2
  221         * POP(X1:3)
  222                MCW   0&X2,X1                                                  7  6461  M 0!0 089           20   000+2   089
  223                MA    @I9G@,X2                                                 7  6468  # S5G 094           20 13257     094
  224                CW    1&X2                                                     4  6475  ) 0!1               20   001+2
  225         * PUSH(0+X1:3)
  226                SW    1&X2                                                     4  6479  , 0!1               20   001+2
  227                MA    @003@,X2                                                 7  6483  # S2I 094           21 13229     094
  228                MCW   0&X1,0&X2                                                7  6490  M 0'0 0!0           21   000+1   000+2
  229                MA    @001@,0&X1                                               7  6497  # S3B 0'0           21 13232     000+1
  230         * POP(X1:3)
  231                MCW   0&X2,X1                                                  7  6504  M 0!0 089           21   000+2   089
  232                MA    @I9G@,X2                                                 7  6511  # S5G 094           21 13257     094
  233                CW    1&X2                                                     4  6518  ) 0!1               21   001+2
  234         * POP(0+X1:1)
  235                MCW   0&X2,0&X1                                                7  6522  M 0!0 0'0           22   000+2   000+1
  236                MA    @I9I@,X2                                                 7  6529  # S3E 094           22 13235     094
  237                CW    1&X2                                                     4  6536  ) 0!1               22   001+2
  238         LDAAAA NOP                                                            1  6540  N                   22
  239                BCE   LCAAAA,RF,R                                              8  6541  B B4' 150 R         22  7240     150
  240                B     LUBAAA                                                   4  6549  B R5Y               22  6958
  241         LTBAAA NOP                                                            1  6553  N                   22
  242         LXBAAA NOP                                                            1  6554  N                   23
  243         * PUSH(1006:3)
  244                SW    1&X2                                                     4  6555  , 0!1               23   001+2
  245                MA    @003@,X2                                                 7  6559  # S2I 094           23 13229     094
  246                MCW   1006,0&X2                                                7  6566  M '06 0!0           23  1006     000+2
  247                B     LZBAAA                                                   4  6573  B 99A               23 12991
1                                                                                                         PAGE    4
0 SEQ PG LIN  LABEL  OP    OPERANDS                                            SFX CT  LOCN  INSTRUCTION TYPE  CARD A-ADDR  B-ADDR

  248                B     LICAAA                                                   4  6577  B /7?               23 13170
  249         * PUSH(1003:3)
  250                SW    1&X2                                                     4  6581  , 0!1               23   001+2
  251                MA    @003@,X2                                                 7  6585  # S2I 094           24 13229     094
  252                MCW   1003,0&X2                                                7  6592  M '03 0!0           24  1003     000+2
  253                B     LZBAAA                                                   4  6599  B 99A               24 12991
  254                B     LICAAA                                                   4  6603  B /7?               24 13170
  255                C     0&X2,15995&X2                                            7  6607  C 0!0 IRE           24   000+2 15995+2
  256         * POP(5)
  257                MA    @I9E@,X2                                                 7  6614  # S5A 094           24 13251     094
  258                CW    1&X2                                                     4  6621  ) 0!1               25   001+2
  259                MCW   @00001@,0&X2                                             7  6625  M S6B 0!0           25 13262     000+2
  260                BL    LKCAAA                                                   5  6632  B O4/ T             25  6641
  261                B     LLCAAA                                                   4  6637  B O4Y               25  6648
  262         LKCAAA MCW   @00000@,0&X2                                             7  6641  M S6G 0!0           25 13267     000+2
  263         LLCAAA NOP                                                            1  6648  N                   25
  264                MCS   0&X2,0&X2                                                7  6649  Z 0!0 0!0           25   000+2   000+2
  265         * POP(5)
  266                MA    @I9E@,X2                                                 7  6656  # S5A 094           26 13251     094
  267                CW    1&X2                                                     4  6663  ) 0!1               26   001+2
  268                BCE   LYBAAA,5&X2,                                             8  6667  B Q0T 0!5           26  6803     005+2
  269         * PUSH(@ @:1)
  270                SW    1&X2                                                     4  6675  , 0!1               26   001+2
  271                MA    @001@,X2                                                 7  6679  # S3B 094           26 13232     094
  272                MCW   @ @,0&X2                                                 7  6686  M S6H 0!0           26 13268     000+2
  273         * PUSH(@'06@:3)
  274                SW    1&X2                                                     4  6693  , 0!1               27   001+2
  275                MA    @003@,X2                                                 7  6697  # S2I 094           27 13229     094
  276                MCW   @'06@,0&X2                                               7  6704  M S7A 0!0           27 13271     000+2
  277         * POP(X1:3)
  278                MCW   0&X2,X1                                                  7  6711  M 0!0 089           27   000+2   089
  279                MA    @I9G@,X2                                                 7  6718  # S5G 094           27 13257     094
  280                CW    1&X2                                                     4  6725  ) 0!1               27   001+2
  281         * PUSH(0+X1:3)
  282                SW    1&X2                                                     4  6729  , 0!1               28   001+2
  283                MA    @003@,X2                                                 7  6733  # S2I 094           28 13229     094
  284                MCW   0&X1,0&X2                                                7  6740  M 0'0 0!0           28   000+1   000+2
  285                MA    @I9I@,0&X1                                               7  6747  # S3E 0'0           28 13235     000+1
  286         * POP(X1:3)
  287                MCW   0&X2,X1                                                  7  6754  M 0!0 089           28   000+2   089
  288                MA    @I9G@,X2                                                 7  6761  # S5G 094           28 13257     094
  289                CW    1&X2                                                     4  6768  ) 0!1               29   001+2
  290         * POP(0+X1:1)
  291                MCW   0&X2,0&X1                                                7  6772  M 0!0 0'0           29   000+2   000+1
  292                MA    @I9I@,X2                                                 7  6779  # S3E 094           29 13235     094
  293                CW    1&X2                                                     4  6786  ) 0!1               29   001+2
  294         LFAAAA NOP                                                            1  6790  N                   29
  295                BCE   LEAAAA,RF,R                                              8  6791  B R4Z 150 R         29  6949     150
  296                B     LXBAAA                                                   4  6799  B N5U               29  6554
  297         LYBAAA NOP                                                            1  6803  N                   30
1                                                                                                         PAGE    5
0 SEQ PG LIN  LABEL  OP    OPERANDS                                            SFX CT  LOCN  INSTRUCTION TYPE  CARD A-ADDR  B-ADDR

  298         * PUSH(1003:3)
  299                SW    1&X2                                                     4  6804  , 0!1               30   001+2
  300                MA    @003@,X2                                                 7  6808  # S2I 094           30 13229     094
  301                MCW   1003,0&X2                                                7  6815  M '03 0!0           30  1003     000+2
  302         * PUSH(@'06@:3)
  303                SW    1&X2                                                     4  6822  , 0!1               30   001+2
  304                MA    @003@,X2                                                 7  6826  # S2I 094           30 13229     094
  305                MCW   @'06@,0&X2                                               7  6833  M S7A 0!0           30 13271     000+2
  306         * POP(X1:3)
  307                MCW   0&X2,X1                                                  7  6840  M 0!0 089           31   000+2   089
  308                MA    @I9G@,X2                                                 7  6847  # S5G 094           31 13257     094
  309                CW    1&X2                                                     4  6854  ) 0!1               31   001+2
  310         * POP(0+X1:3)
  311                MCW   0&X2,0&X1                                                7  6858  M 0!0 0'0           31   000+2   000+1
  312                MA    @I9G@,X2                                                 7  6865  # S5G 094           31 13257     094
  313                CW    1&X2                                                     4  6872  ) 0!1               31   001+2
  314         * PUSH(@201@:3)
  315                SW    1&X2                                                     4  6876  , 0!1               32   001+2
  316                MA    @003@,X2                                                 7  6880  # S2I 094           32 13229     094
  317                MCW   @201@,0&X2                                               7  6887  M S0C 0!0           32 13203     000+2
  318         * PUSH(@'03@:3)
  319                SW    1&X2                                                     4  6894  , 0!1               32   001+2
  320                MA    @003@,X2                                                 7  6898  # S2I 094           32 13229     094
  321                MCW   @'03@,0&X2                                               7  6905  M S5D 0!0           32 13254     000+2
  322         * POP(X1:3)
  323                MCW   0&X2,X1                                                  7  6912  M 0!0 089           33   000+2   089
  324                MA    @I9G@,X2                                                 7  6919  # S5G 094           33 13257     094
  325                CW    1&X2                                                     4  6926  ) 0!1               33   001+2
  326         * POP(0+X1:3)
  327                MCW   0&X2,0&X1                                                7  6930  M 0!0 0'0           33   000+2   000+1
  328                MA    @I9G@,X2                                                 7  6937  # S5G 094           33 13257     094
  329                CW    1&X2                                                     4  6944  ) 0!1               33   001+2
  330         * START ASM BLOCK
  331                W                                                              1  6948  2                   33
  332         * END ASM BLOCK
  333         LEAAAA NOP                                                            1  6949  N                   34
  334                BCE   LCAAAA,RF,R                                              8  6950  B B4' 150 R         34  7240     150
  335         LUBAAA NOP                                                            1  6958  N                   34
  336         * PUSH(1003:3)
  337                SW    1&X2                                                     4  6959  , 0!1               34   001+2
  338                MA    @003@,X2                                                 7  6963  # S2I 094           34 13229     094
  339                MCW   1003,0&X2                                                7  6970  M '03 0!0           34  1003     000+2
  340         * PUSH(@333@:3)
  341                SW    1&X2                                                     4  6977  , 0!1               34   001+2
  342                MA    @003@,X2                                                 7  6981  # S2I 094           35 13229     094
  343                MCW   @333@,0&X2                                               7  6988  M S7D 0!0           35 13274     000+2
  344                C     0&X2,15997&X2                                            7  6995  C 0!0 IRG           35   000+2 15997+2
  345         * POP(3)
  346                MA    @I9G@,X2                                                 7  7002  # S5G 094           35 13257     094
  347                CW    1&X2                                                     4  7009  ) 0!1               35   001+2
1                                                                                                         PAGE    6
0 SEQ PG LIN  LABEL  OP    OPERANDS                                            SFX CT  LOCN  INSTRUCTION TYPE  CARD A-ADDR  B-ADDR

  348         * POP(3)
  349                MA    @I9G@,X2                                                 7  7013  # S5G 094           35 13257     094
  350                CW    1&X2                                                     4  7020  ) 0!1               36   001+2
  351         * PUSH(@00000@:5)
  352                SW    1&X2                                                     4  7024  , 0!1               36   001+2
  353                MA    @005@,X2                                                 7  7028  # S3H 094           36 13238     094
  354                MCW   @00000@,0&X2                                             7  7035  M S7I 0!0           36 13279     000+2
  355                BE    LNCAAA                                                   5  7042  B ?5/ S             36  7051
  356                B     LOCAAA                                                   4  7047  B ?5Y               36  7058
  357         LNCAAA MCW   @00001@,0&X2                                             7  7051  M S8D 0!0           36 13284     000+2
  358         LOCAAA NOP                                                            1  7058  N                   37
  359                MCS   0&X2,0&X2                                                7  7059  Z 0!0 0!0           37   000+2   000+2
  360         * POP(5)
  361                MA    @I9E@,X2                                                 7  7066  # S5A 094           37 13251     094
  362                CW    1&X2                                                     4  7073  ) 0!1               37   001+2
  363                BCE   LMCAAA,5&X2,                                             8  7077  B B3Z 0!5           37  7239     005+2
  364         * PUSH(1003:3)
  365                SW    1&X2                                                     4  7085  , 0!1               37   001+2
  366                MA    @003@,X2                                                 7  7089  # S2I 094           37 13229     094
  367                MCW   1003,0&X2                                                7  7096  M '03 0!0           38  1003     000+2
  368         * PUSH(@'06@:3)
  369                SW    1&X2                                                     4  7103  , 0!1               38   001+2
  370                MA    @003@,X2                                                 7  7107  # S2I 094           38 13229     094
  371                MCW   @'06@,0&X2                                               7  7114  M S7A 0!0           38 13271     000+2
  372         * POP(X1:3)
  373                MCW   0&X2,X1                                                  7  7121  M 0!0 089           38   000+2   089
  374                MA    @I9G@,X2                                                 7  7128  # S5G 094           38 13257     094
  375                CW    1&X2                                                     4  7135  ) 0!1               39   001+2
  376         * POP(0+X1:3)
  377                MCW   0&X2,0&X1                                                7  7139  M 0!0 0'0           39   000+2   000+1
  378                MA    @I9G@,X2                                                 7  7146  # S5G 094           39 13257     094
  379                CW    1&X2                                                     4  7153  ) 0!1               39   001+2
  380         * PUSH(@201@:3)
  381                SW    1&X2                                                     4  7157  , 0!1               39   001+2
  382                MA    @003@,X2                                                 7  7161  # S2I 094           39 13229     094
  383                MCW   @201@,0&X2                                               7  7168  M S0C 0!0           40 13203     000+2
  384         * PUSH(@'03@:3)
  385                SW    1&X2                                                     4  7175  , 0!1               40   001+2
  386                MA    @003@,X2                                                 7  7179  # S2I 094           40 13229     094
  387                MCW   @'03@,0&X2                                               7  7186  M S5D 0!0           40 13254     000+2
  388         * POP(X1:3)
  389                MCW   0&X2,X1                                                  7  7193  M 0!0 089           40   000+2   089
  390                MA    @I9G@,X2                                                 7  7200  # S5G 094           40 13257     094
  391                CW    1&X2                                                     4  7207  ) 0!1               41   001+2
  392         * POP(0+X1:3)
  393                MCW   0&X2,0&X1                                                7  7211  M 0!0 0'0           41   000+2   000+1
  394                MA    @I9G@,X2                                                 7  7218  # S5G 094           41 13257     094
  395                CW    1&X2                                                     4  7225  ) 0!1               41   001+2
  396         * START ASM BLOCK
  397                W                                                              1  7229  2                   41
1                                                                                                         PAGE    7
0 SEQ PG LIN  LABEL  OP    OPERANDS                                            SFX CT  LOCN  INSTRUCTION TYPE  CARD A-ADDR  B-ADDR

  398         * END ASM BLOCK
  399         LGAAAA NOP                                                            1  7230  N                   41
  400                BCE   LCAAAA,RF,R                                              8  7231  B B4' 150 R         41  7240     150
  401         LMCAAA NOP                                                            1  7239  N                   42
  402         LCAAAA NOP                                                            1  7240  N                   42
  403                MA    @I9G@,X2                                                 7  7241  # S5G 094           42 13257     094
  404                CW    1&X3                                                     4  7248  ) 0?1               42   001+3
  405                MCW   @ @,RF                                                   7  7252  M S6H 150           42 13268     150
  406                MCW   3&X3,X1                                                  7  7259  M 0?3 089           42   003+3   089
  407                B     0&X1                                                     4  7266  B 0'0               42   000+1
  408         LHAAAA SBR   3&X3                                                     4  7270  H 0?3               43   003+3
  409                SW    1&X3                                                     4  7274  , 0?1               43   001+3
  410                MA    @003@,X2                                                 7  7278  # S2I 094           43 13229     094
  411         LPCAAA NOP                                                            1  7285  N                   43
  412         * PUSH(15997+X3:3)
  413                SW    1&X2                                                     4  7286  , 0!1               43   001+2
  414                MA    @003@,X2                                                 7  7290  # S2I 094           43 13229     094
  415                MCW   15997&X3,0&X2                                            7  7297  M IIG 0!0           43 15997+3   000+2
  416         * POP(X1:3)
  417                MCW   0&X2,X1                                                  7  7304  M 0!0 089           44   000+2   089
  418                MA    @I9G@,X2                                                 7  7311  # S5G 094           44 13257     094
  419                CW    1&X2                                                     4  7318  ) 0!1               44   001+2
  420         * PUSH(0+X1:1)
  421                SW    1&X2                                                     4  7322  , 0!1               44   001+2
  422                MA    @001@,X2                                                 7  7326  # S3B 094           44 13232     094
  423                MCW   0&X1,0&X2                                                7  7333  M 0'0 0!0           44   000+1   000+2
  424         * PUSH(EOS:1)
  425                SW    1&X2                                                     4  7340  , 0!1               45   001+2
  426                MA    @001@,X2                                                 7  7344  # S3B 094           45 13232     094
  427                MCW   EOS,0&X2                                                 7  7351  M 345 0!0           45   345     000+2
  428                C     0&X2,15999&X2                                            7  7358  C 0!0 IRI           45   000+2 15999+2
  429         * POP(1)
  430                MA    @I9I@,X2                                                 7  7365  # S3E 094           45 13235     094
  431                CW    1&X2                                                     4  7372  ) 0!1               45   001+2
  432         * POP(1)
  433                MA    @I9I@,X2                                                 7  7376  # S3E 094           46 13235     094
  434                CW    1&X2                                                     4  7383  ) 0!1               46   001+2
  435         * PUSH(@00001@:5)
  436                SW    1&X2                                                     4  7387  , 0!1               46   001+2
  437                MA    @005@,X2                                                 7  7391  # S3H 094           46 13238     094
  438                MCW   @00001@,0&X2                                             7  7398  M S8I 0!0           46 13289     000+2
  439                BE    LRCAAA                                                   5  7405  B D1U S             46  7414
  440                B     LSCAAA                                                   4  7410  B D2/               46  7421
  441         LRCAAA MCW   @00000@,0&X2                                             7  7414  M S9D 0!0           47 13294     000+2
  442         LSCAAA NOP                                                            1  7421  N                   47
  443                MCS   0&X2,0&X2                                                7  7422  Z 0!0 0!0           47   000+2   000+2
  444         * POP(5)
  445                MA    @I9E@,X2                                                 7  7429  # S5A 094           47 13251     094
  446                CW    1&X2                                                     4  7436  ) 0!1               47   001+2
  447                BCE   LQCAAA,5&X2,                                             8  7440  B F4V 0!5           47  7645     005+2
1                                                                                                         PAGE    8
0 SEQ PG LIN  LABEL  OP    OPERANDS                                            SFX CT  LOCN  INSTRUCTION TYPE  CARD A-ADDR  B-ADDR

  448         * PUSH(5)
  449                SW    1&X2                                                     4  7448  , 0!1               47   001+2
  450                MA    @005@,X2                                                 7  7452  # S3H 094           48 13238     094
  451         * PUSH(@I9G@:3)
  452                SW    1&X2                                                     4  7459  , 0!1               48   001+2
  453                MA    @003@,X2                                                 7  7463  # S2I 094           48 13229     094
  454                MCW   @I9G@,0&X2                                               7  7470  M S5G 0!0           48 13257     000+2
  455                MA    X3,0&X2                                                  7  7477  # 099 0!0           48   099     000+2
  456         * POP(X1:3)
  457                MCW   0&X2,X1                                                  7  7484  M 0!0 089           48   000+2   089
  458                MA    @I9G@,X2                                                 7  7491  # S5G 094           49 13257     094
  459                CW    1&X2                                                     4  7498  ) 0!1               49   001+2
  460         * PUSH(0+X1:3)
  461                SW    1&X2                                                     4  7502  , 0!1               49   001+2
  462                MA    @003@,X2                                                 7  7506  # S2I 094           49 13229     094
  463                MCW   0&X1,0&X2                                                7  7513  M 0'0 0!0           49   000+1   000+2
  464                MA    @001@,0&X1                                               7  7520  # S3B 0'0           49 13232     000+1
  465         * POP(X1:3)
  466                MCW   0&X2,X1                                                  7  7527  M 0!0 089           50   000+2   089
  467                MA    @I9G@,X2                                                 7  7534  # S5G 094           50 13257     094
  468                CW    1&X2                                                     4  7541  ) 0!1               50   001+2
  469         * PUSH(0+X1:1)
  470                SW    1&X2                                                     4  7545  , 0!1               50   001+2
  471                MA    @001@,X2                                                 7  7549  # S3B 094           50 13232     094
  472                MCW   0&X1,0&X2                                                7  7556  M 0'0 0!0           50   000+1   000+2
  473         * PUSH(X3:3)
  474                SW    1&X2                                                     4  7563  , 0!1               51   001+2
  475                MA    @003@,X2                                                 7  7567  # S2I 094           51 13229     094
  476                MCW   X3,0&X2                                                  7  7574  M 099 0!0           51   099     000+2
  477                MCW   X2,X3                                                    7  7581  M 094 099           51   094     099
  478                B     LBAAAA                                                   4  7588  B K8U               51  6284
  479         * POP(X3:3)
  480                MCW   0&X2,X3                                                  7  7592  M 0!0 099           51   000+2   099
  481                MA    @I9G@,X2                                                 7  7599  # S5G 094           52 13257     094
  482                CW    1&X2                                                     4  7606  ) 0!1               52   001+2
  483         * POP(1)
  484                MA    @I9I@,X2                                                 7  7610  # S3E 094           52 13235     094
  485                CW    1&X2                                                     4  7617  ) 0!1               52   001+2
  486         * POP(5)
  487                MA    @I9E@,X2                                                 7  7621  # S5A 094           52 13251     094
  488                CW    1&X2                                                     4  7628  ) 0!1               52   001+2
  489         LJAAAA NOP                                                            1  7632  N                   52
  490                BCE   LIAAAA,RF,R                                              8  7633  B F4W 150 R         53  7646     150
  491                B     LPCAAA                                                   4  7641  B B8V               53  7285
  492         LQCAAA NOP                                                            1  7645  N                   53
  493         LIAAAA NOP                                                            1  7646  N                   53
  494                MA    @I9G@,X2                                                 7  7647  # S5G 094           53 13257     094
  495                CW    1&X3                                                     4  7654  ) 0?1               53   001+3
  496                MCW   @ @,RF                                                   7  7658  M S6H 150           53 13268     150
  497                MCW   3&X3,X1                                                  7  7665  M 0?3 089           54   003+3   089
1                                                                                                         PAGE    9
0 SEQ PG LIN  LABEL  OP    OPERANDS                                            SFX CT  LOCN  INSTRUCTION TYPE  CARD A-ADDR  B-ADDR

  498                B     0&X1                                                     4  7672  B 0'0               54   000+1
  499         LCBAAA SBR   3&X3                                                     4  7676  H 0?3               54   003+3
  500                SW    1&X3                                                     4  7680  , 0?1               54   001+3
  501                SW    4&X3                                                     4  7684  , 0?4               54   004+3
  502                MCW   @0000J@,8&X3                                             7  7688  M S9I 0?8           54 13299     008+3
  503                MA    @008@,X2                                                 7  7695  # T0B 094           54 13302     094
  504         LTCAAA NOP                                                            1  7702  N                   55
  505         * PUSH(15997+X3:3)
  506                SW    1&X2                                                     4  7703  , 0!1               55   001+2
  507                MA    @003@,X2                                                 7  7707  # S2I 094           55 13229     094
  508                MCW   15997&X3,0&X2                                            7  7714  M IIG 0!0           55 15997+3   000+2
  509         * PUSH(@008@:3)
  510                SW    1&X2                                                     4  7721  , 0!1               55   001+2
  511                MA    @003@,X2                                                 7  7725  # S2I 094           55 13229     094
  512                MCW   @008@,0&X2                                               7  7732  M T0B 0!0           55 13302     000+2
  513                MA    X3,0&X2                                                  7  7739  # 099 0!0           56   099     000+2
  514         * POP(X1:3)
  515                MCW   0&X2,X1                                                  7  7746  M 0!0 089           56   000+2   089
  516                MA    @I9G@,X2                                                 7  7753  # S5G 094           56 13257     094
  517                CW    1&X2                                                     4  7760  ) 0!1               56   001+2
  518                A     @00001@,0&X1                                             7  7764  A T0G 0'0           56 13307     000+1
  519         * PUSH(0+X1:5)
  520                SW    1&X2                                                     4  7771  , 0!1               56   001+2
  521                MA    @005@,X2                                                 7  7775  # S3H 094           57 13238     094
  522                MCW   0&X1,0&X2                                                7  7782  M 0'0 0!0           57   000+1   000+2
  523         * PUSH(15997+X3:3)
  524                SW    1&X2                                                     4  7789  , 0!1               57   001+2
  525                MA    @003@,X2                                                 7  7793  # S2I 094           57 13229     094
  526                MCW   15997&X3,0&X2                                            7  7800  M IIG 0!0           57 15997+3   000+2
  527         * PUSH(@008@:3)
  528                SW    1&X2                                                     4  7807  , 0!1               57   001+2
  529                MA    @003@,X2                                                 7  7811  # S2I 094           58 13229     094
  530                MCW   @008@,0&X2                                               7  7818  M T0B 0!0           58 13302     000+2
  531                MA    X3,0&X2                                                  7  7825  # 099 0!0           58   099     000+2
  532         * POP(X1:3)
  533                MCW   0&X2,X1                                                  7  7832  M 0!0 089           58   000+2   089
  534                MA    @I9G@,X2                                                 7  7839  # S5G 094           58 13257     094
  535                CW    1&X2                                                     4  7846  ) 0!1               58   001+2
  536                A     @00001@,0&X1                                             7  7850  A T1B 0'0           59 13312     000+1
  537         * PUSH(0+X1:5)
  538                SW    1&X2                                                     4  7857  , 0!1               59   001+2
  539                MA    @005@,X2                                                 7  7861  # S3H 094           59 13238     094
  540                MCW   0&X1,0&X2                                                7  7868  M 0'0 0!0           59   000+1   000+2
  541         * RAW INDEX ON THE STACK
  542         * PUSH(@00001@:5)
  543                SW    1&X2                                                     4  7875  , 0!1               59   001+2
  544                MA    @005@,X2                                                 7  7879  # S3H 094           59 13238     094
  545                MCW   @00001@,0&X2                                             7  7886  M T1G 0!0           60 13317     000+2
  546                M     15995&X2,6&X2                                            7  7893  @ IRE 0!6           60 15995+2   006+2
  547                SW    2&X2                                                     4  7900  , 0!2               60   002+2
1                                                                                                         PAGE   10
0 SEQ PG LIN  LABEL  OP    OPERANDS                                            SFX CT  LOCN  INSTRUCTION TYPE  CARD A-ADDR  B-ADDR

  548                MCW   6&X2,15995&X2                                            7  7904  M 0!6 IRE           60   006+2 15995+2
  549                CW    2&X2                                                     4  7911  ) 0!2               60   002+2
  550         * POP(5)
  551                MA    @I9E@,X2                                                 7  7915  # S5A 094           60 13251     094
  552                CW    1&X2                                                     4  7922  ) 0!1               61   001+2
  553         * STACK TOP IS NOW ARRAY INDEX
  554                B     LXCAAA                                                   4  7926  B 78B               61 12782
  555                MA    0&X2,15997&X2                                            7  7930  # 0!0 IRG           61   000+2 15997+2
  556         * POP(3)
  557                MA    @I9G@,X2                                                 7  7937  # S5G 094           61 13257     094
  558                CW    1&X2                                                     4  7944  ) 0!1               61   001+2
  559         * STACK TOP IS LOCATION IN ARRAY NOW.
  560         * POP(X1:3)
  561                MCW   0&X2,X1                                                  7  7948  M 0!0 089           61   000+2   089
  562                MA    @I9G@,X2                                                 7  7955  # S5G 094           62 13257     094
  563                CW    1&X2                                                     4  7962  ) 0!1               62   001+2
  564         * PUSH(0+X1:1)
  565                SW    1&X2                                                     4  7966  , 0!1               62   001+2
  566                MA    @001@,X2                                                 7  7970  # S3B 094           62 13232     094
  567                MCW   0&X1,0&X2                                                7  7977  M 0'0 0!0           62   000+1   000+2
  568         * PUSH(EOS:1)
  569                SW    1&X2                                                     4  7984  , 0!1               62   001+2
  570                MA    @001@,X2                                                 7  7988  # S3B 094           63 13232     094
  571                MCW   EOS,0&X2                                                 7  7995  M 345 0!0           63   345     000+2
  572                C     0&X2,15999&X2                                            7  8002  C 0!0 IRI           63   000+2 15999+2
  573         * POP(1)
  574                MA    @I9I@,X2                                                 7  8009  # S3E 094           63 13235     094
  575                CW    1&X2                                                     4  8016  ) 0!1               63   001+2
  576         * POP(1)
  577                MA    @I9I@,X2                                                 7  8020  # S3E 094           63 13235     094
  578                CW    1&X2                                                     4  8027  ) 0!1               64   001+2
  579         * PUSH(@00001@:5)
  580                SW    1&X2                                                     4  8031  , 0!1               64   001+2
  581                MA    @005@,X2                                                 7  8035  # S3H 094           64 13238     094
  582                MCW   @00001@,0&X2                                             7  8042  M T2B 0!0           64 13322     000+2
  583                BE    LVCAAA                                                   5  8049  B 05Q S             64  8058
  584                B     LWCAAA                                                   4  8054  B 06N               64  8065
  585         LVCAAA MCW   @00000@,0&X2                                             7  8058  M T2G 0!0           64 13327     000+2
  586         LWCAAA NOP                                                            1  8065  N                   65
  587                MCS   0&X2,0&X2                                                7  8066  Z 0!0 0!0           65   000+2   000+2
  588         * POP(5)
  589                MA    @I9E@,X2                                                 7  8073  # S5A 094           65 13251     094
  590                CW    1&X2                                                     4  8080  ) 0!1               65   001+2
  591                BCE   LUCAAA,5&X2,                                             8  8084  B 09O 0!5           65  8096     005+2
  592                B     LTCAAA                                                   4  8092  B G0S               65  7702
  593         LUCAAA NOP                                                            1  8096  N                   65
  594         * PUSH(8+X3:5)
  595                SW    1&X2                                                     4  8097  , 0!1               66   001+2
  596                MA    @005@,X2                                                 7  8101  # S3H 094           66 13238     094
  597                MCW   8&X3,0&X2                                                7  8108  M 0?8 0!0           66   008+3   000+2
1                                                                                                         PAGE   11
0 SEQ PG LIN  LABEL  OP    OPERANDS                                            SFX CT  LOCN  INSTRUCTION TYPE  CARD A-ADDR  B-ADDR

  598         * POP(15994+X3:5)
  599                MCW   0&X2,15994&X3                                            7  8115  M 0!0 IID           66   000+2 15994+3
  600                MA    @I9E@,X2                                                 7  8122  # S5A 094           66 13251     094
  601                CW    1&X2                                                     4  8129  ) 0!1               66   001+2
  602         * SET THE RETURN FLAG, SO WE KNOW DO DEALLOCATE OUR STACK
  603                MCW   @R@,RF                                                   7  8133  M T2H 150           67 13328     150
  604         * AND BRANCH
  605                B     LDBAAA                                                   4  8140  B 14M               67  8144
  606         LDBAAA NOP                                                            1  8144  N                   67
  607                MA    @I9B@,X2                                                 7  8145  # T3A 094           67 13331     094
  608                CW    1&X3                                                     4  8152  ) 0?1               67   001+3
  609                CW    4&X3                                                     4  8156  ) 0?4               67   004+3
  610                MCW   @ @,RF                                                   7  8160  M S6H 150           67 13268     150
  611                MCW   3&X3,X1                                                  7  8167  M 0?3 089           68   003+3   089
  612                B     0&X1                                                     4  8174  B 0'0               68   000+1
  613         LKAAAA SBR   3&X3                                                     4  8178  H 0?3               68   003+3
  614                SW    1&X3                                                     4  8182  , 0?1               68   001+3
  615                SW    4&X3                                                     4  8186  , 0?4               68   004+3
  616                SW    7&X3                                                     4  8190  , 0?7               68   007+3
  617                MCW   @00000@,11&X3                                            7  8194  M T3F 0A1           68 13336     011+3
  618                MA    @011@,X2                                                 7  8201  # T3I 094           69 13339     094
  619         * START ASM BLOCK
  620                NOP                                                            1  8208  N                   69
  621                NOP                                                            1  8209  N                   69
  622                NOP                                                            1  8210  N                   69
  623                NOP                                                            1  8211  N                   69
  624                NOP                                                            1  8212  N                   69
  625                NOP                                                            1  8213  N                   69
  626                NOP                                                            1  8214  N                   70
  627                NOP                                                            1  8215  N                   70
  628                NOP                                                            1  8216  N                   70
  629                NOP                                                            1  8217  N                   70
  630                NOP                                                            1  8218  N                   70
  631                NOP                                                            1  8219  N                   70
  632                NOP                                                            1  8220  N                   70
  633                NOP                                                            1  8221  N                   71
  634                NOP                                                            1  8222  N                   71
  635                NOP                                                            1  8223  N                   71
  636                NOP                                                            1  8224  N                   71
  637         * END ASM BLOCK
  638         * PUSH(15997+X3:5)
  639                SW    1&X2                                                     4  8225  , 0!1               71   001+2
  640                MA    @005@,X2                                                 7  8229  # S3H 094           71 13238     094
  641                MCW   15997&X3,0&X2                                            7  8236  M IIG 0!0           71 15997+3   000+2
  642                B     LICAAA                                                   4  8243  B /7?               72 13170
  643         * PUSH(@0000J@:5)
  644                SW    1&X2                                                     4  8247  , 0!1               72   001+2
  645                MA    @005@,X2                                                 7  8251  # S3H 094           72 13238     094
  646                MCW   @0000J@,0&X2                                             7  8258  M T4D 0!0           72 13344     000+2
  647                B     LICAAA                                                   4  8265  B /7?               72 13170
1                                                                                                         PAGE   12
0 SEQ PG LIN  LABEL  OP    OPERANDS                                            SFX CT  LOCN  INSTRUCTION TYPE  CARD A-ADDR  B-ADDR

  648                C     0&X2,15995&X2                                            7  8269  C 0!0 IRE           72   000+2 15995+2
  649         * POP(5)
  650                MA    @I9E@,X2                                                 7  8276  # S5A 094           73 13251     094
  651                CW    1&X2                                                     4  8283  ) 0!1               73   001+2
  652                MCW   @00000@,0&X2                                             7  8287  M T4I 0!0           73 13349     000+2
  653                BL    LFDAAA                                                   5  8294  B 30L T             73  8303
  654                B     LGDAAA                                                   4  8299  B 31!               73  8310
  655         LFDAAA MCW   @00001@,0&X2                                             7  8303  M T5D 0!0           73 13354     000+2
  656         LGDAAA NOP                                                            1  8310  N                   73
  657                MCS   0&X2,0&X2                                                7  8311  Z 0!0 0!0           74   000+2   000+2
  658         * POP(5)
  659                MA    @I9E@,X2                                                 7  8318  # S5A 094           74 13251     094
  660                CW    1&X2                                                     4  8325  ) 0!1               74   001+2
  661                BCE   LEDAAA,5&X2,                                             8  8329  B 53J 0!5           74  8531     005+2
  662         * PUSH(5)
  663                SW    1&X2                                                     4  8337  , 0!1               74   001+2
  664                MA    @005@,X2                                                 7  8341  # S3H 094           74 13238     094
  665         * PUSH(@-@:1)
  666                SW    1&X2                                                     4  8348  , 0!1               75   001+2
  667                MA    @001@,X2                                                 7  8352  # S3B 094           75 13232     094
  668                MCW   @-@,0&X2                                                 7  8359  M T5E 0!0           75 13355     000+2
  669         * PUSH(X3:3)
  670                SW    1&X2                                                     4  8366  , 0!1               75   001+2
  671                MA    @003@,X2                                                 7  8370  # S2I 094           75 13229     094
  672                MCW   X3,0&X2                                                  7  8377  M 099 0!0           75   099     000+2
  673                MCW   X2,X3                                                    7  8384  M 094 099           76   094     099
  674                B     LBAAAA                                                   4  8391  B K8U               76  6284
  675         * POP(X3:3)
  676                MCW   0&X2,X3                                                  7  8395  M 0!0 099           76   000+2   099
  677                MA    @I9G@,X2                                                 7  8402  # S5G 094           76 13257     094
  678                CW    1&X2                                                     4  8409  ) 0!1               76   001+2
  679         * POP(1)
  680                MA    @I9I@,X2                                                 7  8413  # S3E 094           76 13235     094
  681                CW    1&X2                                                     4  8420  ) 0!1               77   001+2
  682         * POP(5)
  683                MA    @I9E@,X2                                                 7  8424  # S5A 094           77 13251     094
  684                CW    1&X2                                                     4  8431  ) 0!1               77   001+2
  685         * PUSH(15997+X3:5)
  686                SW    1&X2                                                     4  8435  , 0!1               77   001+2
  687                MA    @005@,X2                                                 7  8439  # S3H 094           77 13238     094
  688                MCW   15997&X3,0&X2                                            7  8446  M IIG 0!0           77 15997+3   000+2
  689                ZS    0&X2                                                     4  8453  ! 0!0               77   000+2
  690                B     LICAAA                                                   4  8457  B /7?               78 13170
  691         * PUSH(@I9G@:3)
  692                SW    1&X2                                                     4  8461  , 0!1               78   001+2
  693                MA    @003@,X2                                                 7  8465  # S2I 094           78 13229     094
  694                MCW   @I9G@,0&X2                                               7  8472  M S5G 0!0           78 13257     000+2
  695                MA    X3,0&X2                                                  7  8479  # 099 0!0           78   099     000+2
  696         * POP(X1:3)
  697                MCW   0&X2,X1                                                  7  8486  M 0!0 089           78   000+2   089
1                                                                                                         PAGE   13
0 SEQ PG LIN  LABEL  OP    OPERANDS                                            SFX CT  LOCN  INSTRUCTION TYPE  CARD A-ADDR  B-ADDR

  698                MA    @I9G@,X2                                                 7  8493  # S5G 094           79 13257     094
  699                CW    1&X2                                                     4  8500  ) 0!1               79   001+2
  700         * POP(0+X1:5)
  701                MCW   0&X2,0&X1                                                7  8504  M 0!0 0'0           79   000+2   000+1
  702                MA    @I9E@,X2                                                 7  8511  # S5A 094           79 13251     094
  703                CW    1&X2                                                     4  8518  ) 0!1               79   001+2
  704         LMAAAA NOP                                                            1  8522  N                   79
  705                BCE   LLAAAA,RF,R                                              8  8523  B Z8R 150 R         79  9989     150
  706         LEDAAA NOP                                                            1  8531  N                   80
  707         * PUSH(@I9G@:3)
  708                SW    1&X2                                                     4  8532  , 0!1               80   001+2
  709                MA    @003@,X2                                                 7  8536  # S2I 094           80 13229     094
  710                MCW   @I9G@,0&X2                                               7  8543  M S5G 0!0           80 13257     000+2
  711                MA    X3,0&X2                                                  7  8550  # 099 0!0           80   099     000+2
  712         * PUSH(@006@:3)
  713                SW    1&X2                                                     4  8557  , 0!1               80   001+2
  714                MA    @003@,X2                                                 7  8561  # S2I 094           80 13229     094
  715                MCW   @006@,0&X2                                               7  8568  M T5H 0!0           81 13358     000+2
  716                MA    X3,0&X2                                                  7  8575  # 099 0!0           81   099     000+2
  717         * POP(X1:3)
  718                MCW   0&X2,X1                                                  7  8582  M 0!0 089           81   000+2   089
  719                MA    @I9G@,X2                                                 7  8589  # S5G 094           81 13257     094
  720                CW    1&X2                                                     4  8596  ) 0!1               81   001+2
  721         * POP(0+X1:3)
  722                MCW   0&X2,0&X1                                                7  8600  M 0!0 0'0           81   000+2   000+1
  723                MA    @I9G@,X2                                                 7  8607  # S5G 094           82 13257     094
  724                CW    1&X2                                                     4  8614  ) 0!1               82   001+2
  725         * PUSH(6+X3:3)
  726                SW    1&X2                                                     4  8618  , 0!1               82   001+2
  727                MA    @003@,X2                                                 7  8622  # S2I 094           82 13229     094
  728                MCW   6&X3,0&X2                                                7  8629  M 0?6 0!0           82   006+3   000+2
  729         * PUSH(@I9F@:3)
  730                SW    1&X2                                                     4  8636  , 0!1               82   001+2
  731                MA    @003@,X2                                                 7  8640  # S2I 094           83 13229     094
  732                MCW   @I9F@,0&X2                                               7  8647  M T6A 0!0           83 13361     000+2
  733                MA    0&X2,15997&X2                                            7  8654  # 0!0 IRG           83   000+2 15997+2
  734         * POP(3)
  735                MA    @I9G@,X2                                                 7  8661  # S5G 094           83 13257     094
  736                CW    1&X2                                                     4  8668  ) 0!1               83   001+2
  737         * PUSH(@006@:3)
  738                SW    1&X2                                                     4  8672  , 0!1               83   001+2
  739                MA    @003@,X2                                                 7  8676  # S2I 094           84 13229     094
  740                MCW   @006@,0&X2                                               7  8683  M T5H 0!0           84 13358     000+2
  741                MA    X3,0&X2                                                  7  8690  # 099 0!0           84   099     000+2
  742         * POP(X1:3)
  743                MCW   0&X2,X1                                                  7  8697  M 0!0 089           84   000+2   089
  744                MA    @I9G@,X2                                                 7  8704  # S5G 094           84 13257     094
  745                CW    1&X2                                                     4  8711  ) 0!1               84   001+2
  746         * POP(0+X1:3)
  747                MCW   0&X2,0&X1                                                7  8715  M 0!0 0'0           85   000+2   000+1
1                                                                                                         PAGE   14
0 SEQ PG LIN  LABEL  OP    OPERANDS                                            SFX CT  LOCN  INSTRUCTION TYPE  CARD A-ADDR  B-ADDR

  748                MA    @I9G@,X2                                                 7  8722  # S5G 094           85 13257     094
  749                CW    1&X2                                                     4  8729  ) 0!1               85   001+2
  750         LHDAAA NOP                                                            1  8733  N                   85
  751         * PUSH(@00001@:5)
  752                SW    1&X2                                                     4  8734  , 0!1               85   001+2
  753                MA    @005@,X2                                                 7  8738  # S3H 094           85 13238     094
  754                MCW   @00001@,0&X2                                             7  8745  M T6F 0!0           85 13366     000+2
  755         * PUSH(@006@:3)
  756                SW    1&X2                                                     4  8752  , 0!1               86   001+2
  757                MA    @003@,X2                                                 7  8756  # S2I 094           86 13229     094
  758                MCW   @006@,0&X2                                               7  8763  M T5H 0!0           86 13358     000+2
  759                MA    X3,0&X2                                                  7  8770  # 099 0!0           86   099     000+2
  760         * POP(X1:3)
  761                MCW   0&X2,X1                                                  7  8777  M 0!0 089           86   000+2   089
  762                MA    @I9G@,X2                                                 7  8784  # S5G 094           86 13257     094
  763                CW    1&X2                                                     4  8791  ) 0!1               87   001+2
  764         * PUSH(0+X1:3)
  765                SW    1&X2                                                     4  8795  , 0!1               87   001+2
  766                MA    @003@,X2                                                 7  8799  # S2I 094           87 13229     094
  767                MCW   0&X1,0&X2                                                7  8806  M 0'0 0!0           87   000+1   000+2
  768                MA    @001@,0&X1                                               7  8813  # S3B 0'0           87 13232     000+1
  769         * POP(X1:3)
  770                MCW   0&X2,X1                                                  7  8820  M 0!0 089           87   000+2   089
  771                MA    @I9G@,X2                                                 7  8827  # S5G 094           88 13257     094
  772                CW    1&X2                                                     4  8834  ) 0!1               88   001+2
  773         * PUSH(0+X1:1)
  774                SW    1&X2                                                     4  8838  , 0!1               88   001+2
  775                MA    @001@,X2                                                 7  8842  # S3B 094           88 13232     094
  776                MCW   0&X1,0&X2                                                7  8849  M 0'0 0!0           88   000+1   000+2
  777         * PUSH(@0@:1)
  778                SW    1&X2                                                     4  8856  , 0!1               88   001+2
  779                MA    @001@,X2                                                 7  8860  # S3B 094           89 13232     094
  780                MCW   @0@,0&X2                                                 7  8867  M S2E 0!0           89 13225     000+2
  781                C     0&X2,15999&X2                                            7  8874  C 0!0 IRI           89   000+2 15999+2
  782         * POP(1)
  783                MA    @I9I@,X2                                                 7  8881  # S3E 094           89 13235     094
  784                CW    1&X2                                                     4  8888  ) 0!1               89   001+2
  785         * POP(1)
  786                MA    @I9I@,X2                                                 7  8892  # S3E 094           89 13235     094
  787                CW    1&X2                                                     4  8899  ) 0!1               90   001+2
  788         * PUSH(@00000@:5)
  789                SW    1&X2                                                     4  8903  , 0!1               90   001+2
  790                MA    @005@,X2                                                 7  8907  # S3H 094           90 13238     094
  791                MCW   @00000@,0&X2                                             7  8914  M T7A 0!0           90 13371     000+2
  792                BE    LLDAAA                                                   5  8921  B 93! S             90  8930
  793                B     LMDAAA                                                   4  8926  B 93P               90  8937
  794         LLDAAA MCW   @00001@,0&X2                                             7  8930  M T7F 0!0           90 13376     000+2
  795         LMDAAA NOP                                                            1  8937  N                   91
  796                MCS   0&X2,0&X2                                                7  8938  Z 0!0 0!0           91   000+2   000+2
  797         * POP(5)
1                                                                                                         PAGE   15
0 SEQ PG LIN  LABEL  OP    OPERANDS                                            SFX CT  LOCN  INSTRUCTION TYPE  CARD A-ADDR  B-ADDR

  798                MA    @I9E@,X2                                                 7  8945  # S5A 094           91 13251     094
  799                CW    1&X2                                                     4  8952  ) 0!1               91   001+2
  800                BCE   LJDAAA,5&X2,                                             8  8956  B '8! 0!5           91  9080     005+2
  801         * PUSH(11+X3:5)
  802                SW    1&X2                                                     4  8964  , 0!1               91   001+2
  803                MA    @005@,X2                                                 7  8968  # S3H 094           91 13238     094
  804                MCW   11&X3,0&X2                                               7  8975  M 0A1 0!0           92   011+3   000+2
  805                B     LICAAA                                                   4  8982  B /7?               92 13170
  806         * PUSH(@00006@:5)
  807                SW    1&X2                                                     4  8986  , 0!1               92   001+2
  808                MA    @005@,X2                                                 7  8990  # S3H 094           92 13238     094
  809                MCW   @00006@,0&X2                                             7  8997  M T8A 0!0           92 13381     000+2
  810                B     LICAAA                                                   4  9004  B /7?               92 13170
  811                C     0&X2,15995&X2                                            7  9008  C 0!0 IRE           93   000+2 15995+2
  812         * POP(5)
  813                MA    @I9E@,X2                                                 7  9015  # S5A 094           93 13251     094
  814                CW    1&X2                                                     4  9022  ) 0!1               93   001+2
  815                MCW   @00000@,0&X2                                             7  9026  M T8F 0!0           93 13386     000+2
  816                BL    LNDAAA                                                   5  9033  B '4K T             93  9042
  817                B     LODAAA                                                   4  9038  B '4R               93  9049
  818         LNDAAA MCW   @00001@,0&X2                                             7  9042  M T9A 0!0           94 13391     000+2
  819         LODAAA NOP                                                            1  9049  N                   94
  820                MCS   0&X2,0&X2                                                7  9050  Z 0!0 0!0           94   000+2   000+2
  821         * POP(5)
  822                MA    @I9E@,X2                                                 7  9057  # S5A 094           94 13251     094
  823                CW    1&X2                                                     4  9064  ) 0!1               94   001+2
  824                BCE   LJDAAA,5&X2,                                             8  9068  B '8! 0!5           94  9080     005+2
  825                B     LKDAAA                                                   4  9076  B '8P               94  9087
  826         LJDAAA MCW   @00000@,0&X2                                             7  9080  M T9F 0!0           95 13396     000+2
  827         LKDAAA NOP                                                            1  9087  N                   95
  828                MCS   0&X2,0&X2                                                7  9088  Z 0!0 0!0           95   000+2   000+2
  829         * POP(5)
  830                MA    @I9E@,X2                                                 7  9095  # S5A 094           95 13251     094
  831                CW    1&X2                                                     4  9102  ) 0!1               95   001+2
  832                BCE   LIDAAA,5&X2,                                             8  9106  B S4K 0!5           95  9242     005+2
  833         * PUSH(11+X3:5)
  834                SW    1&X2                                                     4  9114  , 0!1               95   001+2
  835                MA    @005@,X2                                                 7  9118  # S3H 094           96 13238     094
  836                MCW   11&X3,0&X2                                               7  9125  M 0A1 0!0           96   011+3   000+2
  837         * PUSH(@00001@:5)
  838                SW    1&X2                                                     4  9132  , 0!1               96   001+2
  839                MA    @005@,X2                                                 7  9136  # S3H 094           96 13238     094
  840                MCW   @00001@,0&X2                                             7  9143  M U0A 0!0           96 13401     000+2
  841                A     0&X2,15995&X2                                            7  9150  A 0!0 IRE           96   000+2 15995+2
  842         * POP(5)
  843                MA    @I9E@,X2                                                 7  9157  # S5A 094           97 13251     094
  844                CW    1&X2                                                     4  9164  ) 0!1               97   001+2
  845         * PUSH(@011@:3)
  846                SW    1&X2                                                     4  9168  , 0!1               97   001+2
  847                MA    @003@,X2                                                 7  9172  # S2I 094           97 13229     094
1                                                                                                         PAGE   16
0 SEQ PG LIN  LABEL  OP    OPERANDS                                            SFX CT  LOCN  INSTRUCTION TYPE  CARD A-ADDR  B-ADDR

  848                MCW   @011@,0&X2                                               7  9179  M T3I 0!0           97 13339     000+2
  849                MA    X3,0&X2                                                  7  9186  # 099 0!0           97   099     000+2
  850         * POP(X1:3)
  851                MCW   0&X2,X1                                                  7  9193  M 0!0 089           98   000+2   089
  852                MA    @I9G@,X2                                                 7  9200  # S5G 094           98 13257     094
  853                CW    1&X2                                                     4  9207  ) 0!1               98   001+2
  854         * POP(0+X1:5)
  855                MCW   0&X2,0&X1                                                7  9211  M 0!0 0'0           98   000+2   000+1
  856                MA    @I9E@,X2                                                 7  9218  # S5A 094           98 13251     094
  857                CW    1&X2                                                     4  9225  ) 0!1               98   001+2
  858         LNAAAA NOP                                                            1  9229  N                   98
  859                BCE   LLAAAA,RF,R                                              8  9230  B Z8R 150 R         99  9989     150
  860                B     LHDAAA                                                   4  9238  B 73L               99  8733
  861         LIDAAA NOP                                                            1  9242  N                   99
  862         * PUSH(11+X3:5)
  863                SW    1&X2                                                     4  9243  , 0!1               99   001+2
  864                MA    @005@,X2                                                 7  9247  # S3H 094           99 13238     094
  865                MCW   11&X3,0&X2                                               7  9254  M 0A1 0!0           99   011+3   000+2
  866                B     LICAAA                                                   4  9261  B /7?               99 13170
  867         * PUSH(@00005@:5)
  868                SW    1&X2                                                     4  9265  , 0!1              100   001+2
  869                MA    @005@,X2                                                 7  9269  # S3H 094          100 13238     094
  870                MCW   @00005@,0&X2                                             7  9276  M U0F 0!0          100 13406     000+2
  871                B     LICAAA                                                   4  9283  B /7?              100 13170
  872                C     0&X2,15995&X2                                            7  9287  C 0!0 IRE          100   000+2 15995+2
  873         * POP(5)
  874                MA    @I9E@,X2                                                 7  9294  # S5A 094          100 13251     094
  875                CW    1&X2                                                     4  9301  ) 0!1              101   001+2
  876                MCW   @00001@,0&X2                                             7  9305  M U1A 0!0          101 13411     000+2
  877                BL    LRDAAA                                                   5  9312  B T2J T            101  9321
  878                B     LSDAAA                                                   4  9317  B T2Q              101  9328
  879         LRDAAA MCW   @00000@,0&X2                                             7  9321  M U1F 0!0          101 13416     000+2
  880         LSDAAA NOP                                                            1  9328  N                  101
  881                MCS   0&X2,0&X2                                                7  9329  Z 0!0 0!0          101   000+2   000+2
  882         * POP(5)
  883                MA    @I9E@,X2                                                 7  9336  # S5A 094          102 13251     094
  884                CW    1&X2                                                     4  9343  ) 0!1              102   001+2
  885                BCE   LPDAAA,5&X2,                                             8  9347  B U6O 0!5          102  9466     005+2
  886         * PUSH(5)
  887                SW    1&X2                                                     4  9355  , 0!1              102   001+2
  888                MA    @005@,X2                                                 7  9359  # S3H 094          102 13238     094
  889         * PUSH(@0@:1)
  890                SW    1&X2                                                     4  9366  , 0!1              102   001+2
  891                MA    @001@,X2                                                 7  9370  # S3B 094          103 13232     094
  892                MCW   @0@,0&X2                                                 7  9377  M S2E 0!0          103 13225     000+2
  893         * PUSH(X3:3)
  894                SW    1&X2                                                     4  9384  , 0!1              103   001+2
  895                MA    @003@,X2                                                 7  9388  # S2I 094          103 13229     094
  896                MCW   X3,0&X2                                                  7  9395  M 099 0!0          103   099     000+2
  897                MCW   X2,X3                                                    7  9402  M 094 099          103   094     099
1                                                                                                         PAGE   17
0 SEQ PG LIN  LABEL  OP    OPERANDS                                            SFX CT  LOCN  INSTRUCTION TYPE  CARD A-ADDR  B-ADDR

  898                B     LBAAAA                                                   4  9409  B K8U              104  6284
  899         * POP(X3:3)
  900                MCW   0&X2,X3                                                  7  9413  M 0!0 099          104   000+2   099
  901                MA    @I9G@,X2                                                 7  9420  # S5G 094          104 13257     094
  902                CW    1&X2                                                     4  9427  ) 0!1              104   001+2
  903         * POP(1)
  904                MA    @I9I@,X2                                                 7  9431  # S3E 094          104 13235     094
  905                CW    1&X2                                                     4  9438  ) 0!1              104   001+2
  906         * POP(5)
  907                MA    @I9E@,X2                                                 7  9442  # S5A 094          105 13251     094
  908                CW    1&X2                                                     4  9449  ) 0!1              105   001+2
  909         LOAAAA NOP                                                            1  9453  N                  105
  910                BCE   LLAAAA,RF,R                                              8  9454  B Z8R 150 R        105  9989     150
  911                B     LQDAAA                                                   4  9462  B Z8Q              105  9988
  912         LPDAAA NOP                                                            1  9466  N                  105
  913         * PUSH(6+X3:3)
  914                SW    1&X2                                                     4  9467  , 0!1              105   001+2
  915                MA    @003@,X2                                                 7  9471  # S2I 094          106 13229     094
  916                MCW   6&X3,0&X2                                                7  9478  M 0?6 0!0          106   006+3   000+2
  917         * PUSH(@I9I@:3)
  918                SW    1&X2                                                     4  9485  , 0!1              106   001+2
  919                MA    @003@,X2                                                 7  9489  # S2I 094          106 13229     094
  920                MCW   @I9I@,0&X2                                               7  9496  M S3E 0!0          106 13235     000+2
  921                MA    0&X2,15997&X2                                            7  9503  # 0!0 IRG          106   000+2 15997+2
  922         * POP(3)
  923                MA    @I9G@,X2                                                 7  9510  # S5G 094          107 13257     094
  924                CW    1&X2                                                     4  9517  ) 0!1              107   001+2
  925         * PUSH(@006@:3)
  926                SW    1&X2                                                     4  9521  , 0!1              107   001+2
  927                MA    @003@,X2                                                 7  9525  # S2I 094          107 13229     094
  928                MCW   @006@,0&X2                                               7  9532  M T5H 0!0          107 13358     000+2
  929                MA    X3,0&X2                                                  7  9539  # 099 0!0          107   099     000+2
  930         * POP(X1:3)
  931                MCW   0&X2,X1                                                  7  9546  M 0!0 089          108   000+2   089
  932                MA    @I9G@,X2                                                 7  9553  # S5G 094          108 13257     094
  933                CW    1&X2                                                     4  9560  ) 0!1              108   001+2
  934         * POP(0+X1:3)
  935                MCW   0&X2,0&X1                                                7  9564  M 0!0 0'0          108   000+2   000+1
  936                MA    @I9G@,X2                                                 7  9571  # S5G 094          108 13257     094
  937                CW    1&X2                                                     4  9578  ) 0!1              108   001+2
  938         LTDAAA NOP                                                            1  9582  N                  108
  939         * PUSH(@00005@:5)
  940                SW    1&X2                                                     4  9583  , 0!1              109   001+2
  941                MA    @005@,X2                                                 7  9587  # S3H 094          109 13238     094
  942                MCW   @00005@,0&X2                                             7  9594  M U2A 0!0          109 13421     000+2
  943         * PUSH(11+X3:5)
  944                SW    1&X2                                                     4  9601  , 0!1              109   001+2
  945                MA    @005@,X2                                                 7  9605  # S3H 094          109 13238     094
  946                MCW   11&X3,0&X2                                               7  9612  M 0A1 0!0          109   011+3   000+2
  947                S     0&X2,15995&X2                                            7  9619  S 0!0 IRE          110   000+2 15995+2
1                                                                                                         PAGE   18
0 SEQ PG LIN  LABEL  OP    OPERANDS                                            SFX CT  LOCN  INSTRUCTION TYPE  CARD A-ADDR  B-ADDR

  948         * POP(5)
  949                MA    @I9E@,X2                                                 7  9626  # S5A 094          110 13251     094
  950                CW    1&X2                                                     4  9633  ) 0!1              110   001+2
  951                B     LICAAA                                                   4  9637  B /7?              110 13170
  952         * PUSH(@00000@:5)
  953                SW    1&X2                                                     4  9641  , 0!1              110   001+2
  954                MA    @005@,X2                                                 7  9645  # S3H 094          110 13238     094
  955                MCW   @00000@,0&X2                                             7  9652  M U2F 0!0          111 13426     000+2
  956                B     LICAAA                                                   4  9659  B /7?              111 13170
  957                C     0&X2,15995&X2                                            7  9663  C 0!0 IRE          111   000+2 15995+2
  958         * POP(5)
  959                MA    @I9E@,X2                                                 7  9670  # S5A 094          111 13251     094
  960                CW    1&X2                                                     4  9677  ) 0!1              111   001+2
  961                MCW   @00000@,0&X2                                             7  9681  M U3A 0!0          111 13431     000+2
  962                BH    LVDAAA                                                   5  9688  B W9P U            112  9697
  963                B     LWDAAA                                                   4  9693  B X0M              112  9704
  964         LVDAAA MCW   @00001@,0&X2                                             7  9697  M U3F 0!0          112 13436     000+2
  965         LWDAAA NOP                                                            1  9704  N                  112
  966                MCS   0&X2,0&X2                                                7  9705  Z 0!0 0!0          112   000+2   000+2
  967         * POP(5)
  968                MA    @I9E@,X2                                                 7  9712  # S5A 094          112 13251     094
  969                CW    1&X2                                                     4  9719  ) 0!1              112   001+2
  970                BCE   LUDAAA,5&X2,                                             8  9723  B Z7Q 0!5          113  9978     005+2
  971         * PUSH(5)
  972                SW    1&X2                                                     4  9731  , 0!1              113   001+2
  973                MA    @005@,X2                                                 7  9735  # S3H 094          113 13238     094
  974         * PUSH(@006@:3)
  975                SW    1&X2                                                     4  9742  , 0!1              113   001+2
  976                MA    @003@,X2                                                 7  9746  # S2I 094          113 13229     094
  977                MCW   @006@,0&X2                                               7  9753  M T5H 0!0          113 13358     000+2
  978                MA    X3,0&X2                                                  7  9760  # 099 0!0          114   099     000+2
  979         * POP(X1:3)
  980                MCW   0&X2,X1                                                  7  9767  M 0!0 089          114   000+2   089
  981                MA    @I9G@,X2                                                 7  9774  # S5G 094          114 13257     094
  982                CW    1&X2                                                     4  9781  ) 0!1              114   001+2
  983         * PUSH(0+X1:3)
  984                SW    1&X2                                                     4  9785  , 0!1              114   001+2
  985                MA    @003@,X2                                                 7  9789  # S2I 094          114 13229     094
  986                MCW   0&X1,0&X2                                                7  9796  M 0'0 0!0          115   000+1   000+2
  987                MA    @001@,0&X1                                               7  9803  # S3B 0'0          115 13232     000+1
  988         * POP(X1:3)
  989                MCW   0&X2,X1                                                  7  9810  M 0!0 089          115   000+2   089
  990                MA    @I9G@,X2                                                 7  9817  # S5G 094          115 13257     094
  991                CW    1&X2                                                     4  9824  ) 0!1              115   001+2
  992         * PUSH(0+X1:1)
  993                SW    1&X2                                                     4  9828  , 0!1              115   001+2
  994                MA    @001@,X2                                                 7  9832  # S3B 094          116 13232     094
  995                MCW   0&X1,0&X2                                                7  9839  M 0'0 0!0          116   000+1   000+2
  996         * PUSH(X3:3)
  997                SW    1&X2                                                     4  9846  , 0!1              116   001+2
1                                                                                                         PAGE   19
0 SEQ PG LIN  LABEL  OP    OPERANDS                                            SFX CT  LOCN  INSTRUCTION TYPE  CARD A-ADDR  B-ADDR

  998                MA    @003@,X2                                                 7  9850  # S2I 094          116 13229     094
  999                MCW   X3,0&X2                                                  7  9857  M 099 0!0          116   099     000+2
 1000                MCW   X2,X3                                                    7  9864  M 094 099          116   094     099
 1001                B     LBAAAA                                                   4  9871  B K8U              117  6284
 1002         * POP(X3:3)
 1003                MCW   0&X2,X3                                                  7  9875  M 0!0 099          117   000+2   099
 1004                MA    @I9G@,X2                                                 7  9882  # S5G 094          117 13257     094
 1005                CW    1&X2                                                     4  9889  ) 0!1              117   001+2
 1006         * POP(1)
 1007                MA    @I9I@,X2                                                 7  9893  # S3E 094          117 13235     094
 1008                CW    1&X2                                                     4  9900  ) 0!1              117   001+2
 1009         * POP(5)
 1010                MA    @I9E@,X2                                                 7  9904  # S5A 094          118 13251     094
 1011                CW    1&X2                                                     4  9911  ) 0!1              118   001+2
 1012         * PUSH(@011@:3)
 1013                SW    1&X2                                                     4  9915  , 0!1              118   001+2
 1014                MA    @003@,X2                                                 7  9919  # S2I 094          118 13229     094
 1015                MCW   @011@,0&X2                                               7  9926  M T3I 0!0          118 13339     000+2
 1016                MA    X3,0&X2                                                  7  9933  # 099 0!0          118   099     000+2
 1017         * POP(X1:3)
 1018                MCW   0&X2,X1                                                  7  9940  M 0!0 089          119   000+2   089
 1019                MA    @I9G@,X2                                                 7  9947  # S5G 094          119 13257     094
 1020                CW    1&X2                                                     4  9954  ) 0!1              119   001+2
 1021                A     @00001@,0&X1                                             7  9958  A U4A 0'0          119 13441     000+1
 1022         LQAAAA NOP                                                            1  9965  N                  119
 1023                BCE   LPAAAA,RF,R                                              8  9966  B Z7R 150 R        119  9979     150
 1024                B     LTDAAA                                                   4  9974  B V8K              119  9582
 1025         LUDAAA NOP                                                            1  9978  N                  120
 1026         LPAAAA NOP                                                            1  9979  N                  120
 1027                BCE   LLAAAA,RF,R                                              8  9980  B Z8R 150 R        120  9989     150
 1028         LQDAAA NOP                                                            1  9988  N                  120
 1029         LLAAAA NOP                                                            1  9989  N                  120
 1030                MA    @I8I@,X2                                                 7  9990  # U4D 094          120 13444     094
 1031                CW    1&X3                                                     4  9997  ) 0?1              120   001+3
 1032                CW    4&X3                                                     4 10001  ) 0?4              121   004+3
 1033                CW    7&X3                                                     4 10005  ) 0?7              121   007+3
 1034                MCW   @ @,RF                                                   7 10009  M S6H 150          121 13268     150
 1035                MCW   3&X3,X1                                                  7 10016  M 0?3 089          121   003+3   089
 1036                B     0&X1                                                     4 10023  B 0'0              121   000+1
 1037         LRBAAA SBR   3&X3                                                     4 10027  H 0?3              121   003+3
 1038                SW    1&X3                                                     4 10031  , 0?1              121   001+3
 1039                MA    @003@,X2                                                 7 10035  # S2I 094          122 13229     094
 1040         * PUSH(5)
 1041                SW    1&X2                                                     4 10042  , 0!1              122   001+2
 1042                MA    @005@,X2                                                 7 10046  # S3H 094          122 13238     094
 1043         * PUSH(@00052@:5)
 1044                SW    1&X2                                                     4 10053  , 0!1              122   001+2
 1045                MA    @005@,X2                                                 7 10057  # S3H 094          122 13238     094
 1046                MCW   @00052@,0&X2                                             7 10064  M U4I 0!0          122 13449     000+2
 1047                ZS    0&X2                                                     4 10071  ! 0!0              123   000+2
1                                                                                                         PAGE   20
0 SEQ PG LIN  LABEL  OP    OPERANDS                                            SFX CT  LOCN  INSTRUCTION TYPE  CARD A-ADDR  B-ADDR

 1048                B     LICAAA                                                   4 10075  B /7?              123 13170
 1049         * PUSH(@'35@:3)
 1050                SW    1&X2                                                     4 10079  , 0!1              123   001+2
 1051                MA    @003@,X2                                                 7 10083  # S2I 094          123 13229     094
 1052                MCW   @'35@,0&X2                                               7 10090  M U5B 0!0          123 13452     000+2
 1053         * PUSH(X3:3)
 1054                SW    1&X2                                                     4 10097  , 0!1              123   001+2
 1055                MA    @003@,X2                                                 7 10101  # S2I 094          123 13229     094
 1056                MCW   X3,0&X2                                                  7 10108  M 099 0!0          124   099     000+2
 1057                MCW   X2,X3                                                    7 10115  M 094 099          124   094     099
 1058                B     LRAAAA                                                   4 10122  B N6L              124 10563
 1059         * POP(X3:3)
 1060                MCW   0&X2,X3                                                  7 10126  M 0!0 099          124   000+2   099
 1061                MA    @I9G@,X2                                                 7 10133  # S5G 094          124 13257     094
 1062                CW    1&X2                                                     4 10140  ) 0!1              124   001+2
 1063         * POP(3)
 1064                MA    @I9G@,X2                                                 7 10144  # S5G 094          125 13257     094
 1065                CW    1&X2                                                     4 10151  ) 0!1              125   001+2
 1066         * POP(5)
 1067                MA    @I9E@,X2                                                 7 10155  # S5A 094          125 13251     094
 1068                CW    1&X2                                                     4 10162  ) 0!1              125   001+2
 1069         * POP(5)
 1070                MA    @I9E@,X2                                                 7 10166  # S5A 094          125 13251     094
 1071                CW    1&X2                                                     4 10173  ) 0!1              125   001+2
 1072         LSBAAA NOP                                                            1 10177  N                  125
 1073                MA    @I9G@,X2                                                 7 10178  # S5G 094          126 13257     094
 1074                CW    1&X3                                                     4 10185  ) 0?1              126   001+3
 1075                MCW   @ @,RF                                                   7 10189  M S6H 150          126 13268     150
 1076                MCW   3&X3,X1                                                  7 10196  M 0?3 089          126   003+3   089
 1077                B     0&X1                                                     4 10203  B 0'0              126   000+1
 1078         LEBAAA SBR   3&X3                                                     4 10207  H 0?3              126   003+3
 1079                SW    1&X3                                                     4 10211  , 0?1              126   001+3
 1080                MA    @003@,X2                                                 7 10215  # S2I 094          127 13229     094
 1081         LXDAAA NOP                                                            1 10222  N                  127
 1082         * PUSH(@I9D@:3)
 1083                SW    1&X2                                                     4 10223  , 0!1              127   001+2
 1084                MA    @003@,X2                                                 7 10227  # S2I 094          127 13229     094
 1085                MCW   @I9D@,0&X2                                               7 10234  M U5E 0!0          127 13455     000+2
 1086                MA    X3,0&X2                                                  7 10241  # 099 0!0          127   099     000+2
 1087         * POP(X1:3)
 1088                MCW   0&X2,X1                                                  7 10248  M 0!0 089          128   000+2   089
 1089                MA    @I9G@,X2                                                 7 10255  # S5G 094          128 13257     094
 1090                CW    1&X2                                                     4 10262  ) 0!1              128   001+2
 1091         * PUSH(0+X1:3)
 1092                SW    1&X2                                                     4 10266  , 0!1              128   001+2
 1093                MA    @003@,X2                                                 7 10270  # S2I 094          128 13229     094
 1094                MCW   0&X1,0&X2                                                7 10277  M 0'0 0!0          128   000+1   000+2
 1095                MA    @001@,0&X1                                               7 10284  # S3B 0'0          129 13232     000+1
 1096         * POP(X1:3)
 1097                MCW   0&X2,X1                                                  7 10291  M 0!0 089          129   000+2   089
1                                                                                                         PAGE   21
0 SEQ PG LIN  LABEL  OP    OPERANDS                                            SFX CT  LOCN  INSTRUCTION TYPE  CARD A-ADDR  B-ADDR

 1098                MA    @I9G@,X2                                                 7 10298  # S5G 094          129 13257     094
 1099                CW    1&X2                                                     4 10305  ) 0!1              129   001+2
 1100         * PUSH(0+X1:1)
 1101                SW    1&X2                                                     4 10309  , 0!1              129   001+2
 1102                MA    @001@,X2                                                 7 10313  # S3B 094          129 13232     094
 1103                MCW   0&X1,0&X2                                                7 10320  M 0'0 0!0          130   000+1   000+2
 1104         * PUSH(@I9G@:3)
 1105                SW    1&X2                                                     4 10327  , 0!1              130   001+2
 1106                MA    @003@,X2                                                 7 10331  # S2I 094          130 13229     094
 1107                MCW   @I9G@,0&X2                                               7 10338  M S5G 0!0          130 13257     000+2
 1108                MA    X3,0&X2                                                  7 10345  # 099 0!0          130   099     000+2
 1109         * POP(X1:3)
 1110                MCW   0&X2,X1                                                  7 10352  M 0!0 089          130   000+2   089
 1111                MA    @I9G@,X2                                                 7 10359  # S5G 094          131 13257     094
 1112                CW    1&X2                                                     4 10366  ) 0!1              131   001+2
 1113         * PUSH(0+X1:3)
 1114                SW    1&X2                                                     4 10370  , 0!1              131   001+2
 1115                MA    @003@,X2                                                 7 10374  # S2I 094          131 13229     094
 1116                MCW   0&X1,0&X2                                                7 10381  M 0'0 0!0          131   000+1   000+2
 1117                MA    @001@,0&X1                                               7 10388  # S3B 0'0          131 13232     000+1
 1118         * POP(X1:3)
 1119                MCW   0&X2,X1                                                  7 10395  M 0!0 089          132   000+2   089
 1120                MA    @I9G@,X2                                                 7 10402  # S5G 094          132 13257     094
 1121                CW    1&X2                                                     4 10409  ) 0!1              132   001+2
 1122                MCW   0&X2,0&X1                                                7 10413  M 0!0 0'0          132   000+2   000+1
 1123         * PUSH(EOS:1)
 1124                SW    1&X2                                                     4 10420  , 0!1              132   001+2
 1125                MA    @001@,X2                                                 7 10424  # S3B 094          132 13232     094
 1126                MCW   EOS,0&X2                                                 7 10431  M 345 0!0          133   345     000+2
 1127                C     0&X2,15999&X2                                            7 10438  C 0!0 IRI          133   000+2 15999+2
 1128         * POP(1)
 1129                MA    @I9I@,X2                                                 7 10445  # S3E 094          133 13235     094
 1130                CW    1&X2                                                     4 10452  ) 0!1              133   001+2
 1131         * POP(1)
 1132                MA    @I9I@,X2                                                 7 10456  # S3E 094          133 13235     094
 1133                CW    1&X2                                                     4 10463  ) 0!1              133   001+2
 1134         * PUSH(@00001@:5)
 1135                SW    1&X2                                                     4 10467  , 0!1              134   001+2
 1136                MA    @005@,X2                                                 7 10471  # S3H 094          134 13238     094
 1137                MCW   @00001@,0&X2                                             7 10478  M U6? 0!0          134 13460     000+2
 1138                BE    LZDAAA                                                   5 10485  B M9M S            134 10494
 1139                B     LAEAAA                                                   4 10490  B N0J              134 10501
 1140         LZDAAA MCW   @00000@,0&X2                                             7 10494  M U6E 0!0          134 13465     000+2
 1141         LAEAAA NOP                                                            1 10501  N                  134
 1142                MCS   0&X2,0&X2                                                7 10502  Z 0!0 0!0          135   000+2   000+2
 1143         * POP(5)
 1144                MA    @I9E@,X2                                                 7 10509  # S5A 094          135 13251     094
 1145                CW    1&X2                                                     4 10516  ) 0!1              135   001+2
 1146                BCE   LYDAAA,5&X2,                                             8 10520  B N3K 0!5          135 10532     005+2
 1147                B     LXDAAA                                                   4 10528  B K2K              135 10222
1                                                                                                         PAGE   22
0 SEQ PG LIN  LABEL  OP    OPERANDS                                            SFX CT  LOCN  INSTRUCTION TYPE  CARD A-ADDR  B-ADDR

 1148         LYDAAA NOP                                                            1 10532  N                  135
 1149         LFBAAA NOP                                                            1 10533  N                  135
 1150                MA    @I9G@,X2                                                 7 10534  # S5G 094          136 13257     094
 1151                CW    1&X3                                                     4 10541  ) 0?1              136   001+3
 1152                MCW   @ @,RF                                                   7 10545  M S6H 150          136 13268     150
 1153                MCW   3&X3,X1                                                  7 10552  M 0?3 089          136   003+3   089
 1154                B     0&X1                                                     4 10559  B 0'0              136   000+1
 1155         LRAAAA SBR   3&X3                                                     4 10563  H 0?3              136   003+3
 1156                SW    1&X3                                                     4 10567  , 0?1              136   001+3
 1157                SW    4&X3                                                     4 10571  , 0?4              137   004+3
 1158                SW    7&X3                                                     4 10575  , 0?7              137   007+3
 1159                MA    @007@,X2                                                 7 10579  # U6H 094          137 13468     094
 1160         * PUSH(@I9G@:3)
 1161                SW    1&X2                                                     4 10586  , 0!1              137   001+2
 1162                MA    @003@,X2                                                 7 10590  # S2I 094          137 13229     094
 1163                MCW   @I9G@,0&X2                                               7 10597  M S5G 0!0          137 13257     000+2
 1164                MA    X3,0&X2                                                  7 10604  # 099 0!0          138   099     000+2
 1165         * PUSH(@I9G@:3)
 1166                SW    1&X2                                                     4 10611  , 0!1              138   001+2
 1167                MA    @003@,X2                                                 7 10615  # S2I 094          138 13229     094
 1168                MCW   @I9G@,0&X2                                               7 10622  M S5G 0!0          138 13257     000+2
 1169                MA    0&X2,15997&X2                                            7 10629  # 0!0 IRG          138   000+2 15997+2
 1170         * POP(3)
 1171                MA    @I9G@,X2                                                 7 10636  # S5G 094          138 13257     094
 1172                CW    1&X2                                                     4 10643  ) 0!1              139   001+2
 1173         * PUSH(@006@:3)
 1174                SW    1&X2                                                     4 10647  , 0!1              139   001+2
 1175                MA    @003@,X2                                                 7 10651  # S2I 094          139 13229     094
 1176                MCW   @006@,0&X2                                               7 10658  M T5H 0!0          139 13358     000+2
 1177                MA    X3,0&X2                                                  7 10665  # 099 0!0          139   099     000+2
 1178         * POP(X1:3)
 1179                MCW   0&X2,X1                                                  7 10672  M 0!0 089          139   000+2   089
 1180                MA    @I9G@,X2                                                 7 10679  # S5G 094          140 13257     094
 1181                CW    1&X2                                                     4 10686  ) 0!1              140   001+2
 1182         * POP(0+X1:3)
 1183                MCW   0&X2,0&X1                                                7 10690  M 0!0 0'0          140   000+2   000+1
 1184                MA    @I9G@,X2                                                 7 10697  # S5G 094          140 13257     094
 1185                CW    1&X2                                                     4 10704  ) 0!1              140   001+2
 1186         LBEAAA NOP                                                            1 10708  N                  140
 1187         * PUSH(@I9G@:3)
 1188                SW    1&X2                                                     4 10709  , 0!1              140   001+2
 1189                MA    @003@,X2                                                 7 10713  # S2I 094          141 13229     094
 1190                MCW   @I9G@,0&X2                                               7 10720  M S5G 0!0          141 13257     000+2
 1191                MA    X3,0&X2                                                  7 10727  # 099 0!0          141   099     000+2
 1192         * POP(X1:3)
 1193                MCW   0&X2,X1                                                  7 10734  M 0!0 089          141   000+2   089
 1194                MA    @I9G@,X2                                                 7 10741  # S5G 094          141 13257     094
 1195                CW    1&X2                                                     4 10748  ) 0!1              141   001+2
 1196         * PUSH(0+X1:3)
 1197                SW    1&X2                                                     4 10752  , 0!1              142   001+2
1                                                                                                         PAGE   23
0 SEQ PG LIN  LABEL  OP    OPERANDS                                            SFX CT  LOCN  INSTRUCTION TYPE  CARD A-ADDR  B-ADDR

 1198                MA    @003@,X2                                                 7 10756  # S2I 094          142 13229     094
 1199                MCW   0&X1,0&X2                                                7 10763  M 0'0 0!0          142   000+1   000+2
 1200                MA    @001@,0&X1                                               7 10770  # S3B 0'0          142 13232     000+1
 1201         * POP(X1:3)
 1202                MCW   0&X2,X1                                                  7 10777  M 0!0 089          142   000+2   089
 1203                MA    @I9G@,X2                                                 7 10784  # S5G 094          142 13257     094
 1204                CW    1&X2                                                     4 10791  ) 0!1              143   001+2
 1205         * PUSH(0+X1:1)
 1206                SW    1&X2                                                     4 10795  , 0!1              143   001+2
 1207                MA    @001@,X2                                                 7 10799  # S3B 094          143 13232     094
 1208                MCW   0&X1,0&X2                                                7 10806  M 0'0 0!0          143   000+1   000+2
 1209         * PUSH(@007@:3)
 1210                SW    1&X2                                                     4 10813  , 0!1              143   001+2
 1211                MA    @003@,X2                                                 7 10817  # S2I 094          143 13229     094
 1212                MCW   @007@,0&X2                                               7 10824  M U6H 0!0          144 13468     000+2
 1213                MA    X3,0&X2                                                  7 10831  # 099 0!0          144   099     000+2
 1214         * POP(X1:3)
 1215                MCW   0&X2,X1                                                  7 10838  M 0!0 089          144   000+2   089
 1216                MA    @I9G@,X2                                                 7 10845  # S5G 094          144 13257     094
 1217                CW    1&X2                                                     4 10852  ) 0!1              144   001+2
 1218                MCW   0&X2,0&X1                                                7 10856  M 0!0 0'0          144   000+2   000+1
 1219         * PUSH(EOS:1)
 1220                SW    1&X2                                                     4 10863  , 0!1              145   001+2
 1221                MA    @001@,X2                                                 7 10867  # S3B 094          145 13232     094
 1222                MCW   EOS,0&X2                                                 7 10874  M 345 0!0          145   345     000+2
 1223                C     0&X2,15999&X2                                            7 10881  C 0!0 IRI          145   000+2 15999+2
 1224         * POP(1)
 1225                MA    @I9I@,X2                                                 7 10888  # S3E 094          145 13235     094
 1226                CW    1&X2                                                     4 10895  ) 0!1              145   001+2
 1227         * POP(1)
 1228                MA    @I9I@,X2                                                 7 10899  # S3E 094          146 13235     094
 1229                CW    1&X2                                                     4 10906  ) 0!1              146   001+2
 1230         * PUSH(@00001@:5)
 1231                SW    1&X2                                                     4 10910  , 0!1              146   001+2
 1232                MA    @005@,X2                                                 7 10914  # S3H 094          146 13238     094
 1233                MCW   @00001@,0&X2                                             7 10921  M U7C 0!0          146 13473     000+2
 1234                BE    LDEAAA                                                   5 10928  B R3P S            146 10937
 1235                B     LEEAAA                                                   4 10933  B R4M              146 10944
 1236         LDEAAA MCW   @00000@,0&X2                                             7 10937  M U7H 0!0          147 13478     000+2
 1237         LEEAAA NOP                                                            1 10944  N                  147
 1238                MCS   0&X2,0&X2                                                7 10945  Z 0!0 0!0          147   000+2   000+2
 1239         * POP(5)
 1240                MA    @I9E@,X2                                                 7 10952  # S5A 094          147 13251     094
 1241                CW    1&X2                                                     4 10959  ) 0!1              147   001+2
 1242                BCE   LCEAAA,5&X2,                                             8 10963  B 74C 0!5          147 12743     005+2
 1243         * PUSH(7+X3:1)
 1244                SW    1&X2                                                     4 10971  , 0!1              147   001+2
 1245                MA    @001@,X2                                                 7 10975  # S3B 094          148 13232     094
 1246                MCW   7&X3,0&X2                                                7 10982  M 0?7 0!0          148   007+3   000+2
 1247         * PUSH(@%@:1)
1                                                                                                         PAGE   24
0 SEQ PG LIN  LABEL  OP    OPERANDS                                            SFX CT  LOCN  INSTRUCTION TYPE  CARD A-ADDR  B-ADDR

 1248                SW    1&X2                                                     4 10989  , 0!1              148   001+2
 1249                MA    @001@,X2                                                 7 10993  # S3B 094          148 13232     094
 1250                MCW   @%@,0&X2                                                 7 11000  M S2F 0!0          148 13226     000+2
 1251                C     0&X2,15999&X2                                            7 11007  C 0!0 IRI          148   000+2 15999+2
 1252         * POP(1)
 1253                MA    @I9I@,X2                                                 7 11014  # S3E 094          149 13235     094
 1254                CW    1&X2                                                     4 11021  ) 0!1              149   001+2
 1255         * POP(1)
 1256                MA    @I9I@,X2                                                 7 11025  # S3E 094          149 13235     094
 1257                CW    1&X2                                                     4 11032  ) 0!1              149   001+2
 1258         * PUSH(@00001@:5)
 1259                SW    1&X2                                                     4 11036  , 0!1              149   001+2
 1260                MA    @005@,X2                                                 7 11040  # S3H 094          149 13238     094
 1261                MCW   @00001@,0&X2                                             7 11047  M U8C 0!0          150 13483     000+2
 1262                BE    LHEAAA                                                   5 11054  B ?6L S            150 11063
 1263                B     LIEAAA                                                   4 11059  B ?7!              150 11070
 1264         LHEAAA MCW   @00000@,0&X2                                             7 11063  M U8H 0!0          150 13488     000+2
 1265         LIEAAA NOP                                                            1 11070  N                  150
 1266                MCS   0&X2,0&X2                                                7 11071  Z 0!0 0!0          150   000+2   000+2
 1267         * POP(5)
 1268                MA    @I9E@,X2                                                 7 11078  # S5A 094          150 13251     094
 1269                CW    1&X2                                                     4 11085  ) 0!1              151   001+2
 1270                BCE   LFEAAA,5&X2,                                             8 11089  B A9R 0!5          151 11199     005+2
 1271         * PUSH(5)
 1272                SW    1&X2                                                     4 11097  , 0!1              151   001+2
 1273                MA    @005@,X2                                                 7 11101  # S3H 094          151 13238     094
 1274         * PUSH(7+X3:1)
 1275                SW    1&X2                                                     4 11108  , 0!1              151   001+2
 1276                MA    @001@,X2                                                 7 11112  # S3B 094          151 13232     094
 1277                MCW   7&X3,0&X2                                                7 11119  M 0?7 0!0          152   007+3   000+2
 1278         * PUSH(X3:3)
 1279                SW    1&X2                                                     4 11126  , 0!1              152   001+2
 1280                MA    @003@,X2                                                 7 11130  # S2I 094          152 13229     094
 1281                MCW   X3,0&X2                                                  7 11137  M 099 0!0          152   099     000+2
 1282                MCW   X2,X3                                                    7 11144  M 094 099          152   094     099
 1283                B     LBAAAA                                                   4 11151  B K8U              152  6284
 1284         * POP(X3:3)
 1285                MCW   0&X2,X3                                                  7 11155  M 0!0 099          153   000+2   099
 1286                MA    @I9G@,X2                                                 7 11162  # S5G 094          153 13257     094
 1287                CW    1&X2                                                     4 11169  ) 0!1              153   001+2
 1288         * POP(1)
 1289                MA    @I9I@,X2                                                 7 11173  # S3E 094          153 13235     094
 1290                CW    1&X2                                                     4 11180  ) 0!1              153   001+2
 1291         * POP(5)
 1292                MA    @I9E@,X2                                                 7 11184  # S5A 094          153 13251     094
 1293                CW    1&X2                                                     4 11191  ) 0!1              154   001+2
 1294                B     LGEAAA                                                   4 11195  B 72I              154 12729
 1295         LFEAAA NOP                                                            1 11199  N                  154
 1296         * PUSH(@I9G@:3)
 1297                SW    1&X2                                                     4 11200  , 0!1              154   001+2
1                                                                                                         PAGE   25
0 SEQ PG LIN  LABEL  OP    OPERANDS                                            SFX CT  LOCN  INSTRUCTION TYPE  CARD A-ADDR  B-ADDR

 1298                MA    @003@,X2                                                 7 11204  # S2I 094          154 13229     094
 1299                MCW   @I9G@,0&X2                                               7 11211  M S5G 0!0          154 13257     000+2
 1300                MA    X3,0&X2                                                  7 11218  # 099 0!0          154   099     000+2
 1301         * POP(X1:3)
 1302                MCW   0&X2,X1                                                  7 11225  M 0!0 089          155   000+2   089
 1303                MA    @I9G@,X2                                                 7 11232  # S5G 094          155 13257     094
 1304                CW    1&X2                                                     4 11239  ) 0!1              155   001+2
 1305         * PUSH(0+X1:3)
 1306                SW    1&X2                                                     4 11243  , 0!1              155   001+2
 1307                MA    @003@,X2                                                 7 11247  # S2I 094          155 13229     094
 1308                MCW   0&X1,0&X2                                                7 11254  M 0'0 0!0          155   000+1   000+2
 1309                MA    @001@,0&X1                                               7 11261  # S3B 0'0          156 13232     000+1
 1310         * POP(X1:3)
 1311                MCW   0&X2,X1                                                  7 11268  M 0!0 089          156   000+2   089
 1312                MA    @I9G@,X2                                                 7 11275  # S5G 094          156 13257     094
 1313                CW    1&X2                                                     4 11282  ) 0!1              156   001+2
 1314         * PUSH(0+X1:1)
 1315                SW    1&X2                                                     4 11286  , 0!1              156   001+2
 1316                MA    @001@,X2                                                 7 11290  # S3B 094          156 13232     094
 1317                MCW   0&X1,0&X2                                                7 11297  M 0'0 0!0          157   000+1   000+2
 1318         * PUSH(@007@:3)
 1319                SW    1&X2                                                     4 11304  , 0!1              157   001+2
 1320                MA    @003@,X2                                                 7 11308  # S2I 094          157 13229     094
 1321                MCW   @007@,0&X2                                               7 11315  M U6H 0!0          157 13468     000+2
 1322                MA    X3,0&X2                                                  7 11322  # 099 0!0          157   099     000+2
 1323         * POP(X1:3)
 1324                MCW   0&X2,X1                                                  7 11329  M 0!0 089          157   000+2   089
 1325                MA    @I9G@,X2                                                 7 11336  # S5G 094          158 13257     094
 1326                CW    1&X2                                                     4 11343  ) 0!1              158   001+2
 1327         * POP(0+X1:1)
 1328                MCW   0&X2,0&X1                                                7 11347  M 0!0 0'0          158   000+2   000+1
 1329                MA    @I9I@,X2                                                 7 11354  # S3E 094          158 13235     094
 1330                CW    1&X2                                                     4 11361  ) 0!1              158   001+2
 1331         * PUSH(7+X3:1)
 1332                SW    1&X2                                                     4 11365  , 0!1              158   001+2
 1333                MA    @001@,X2                                                 7 11369  # S3B 094          159 13232     094
 1334                MCW   7&X3,0&X2                                                7 11376  M 0?7 0!0          159   007+3   000+2
 1335         * PUSH(@%@:1)
 1336                SW    1&X2                                                     4 11383  , 0!1              159   001+2
 1337                MA    @001@,X2                                                 7 11387  # S3B 094          159 13232     094
 1338                MCW   @%@,0&X2                                                 7 11394  M S2F 0!0          159 13226     000+2
 1339                C     0&X2,15999&X2                                            7 11401  C 0!0 IRI          159   000+2 15999+2
 1340         * POP(1)
 1341                MA    @I9I@,X2                                                 7 11408  # S3E 094          160 13235     094
 1342                CW    1&X2                                                     4 11415  ) 0!1              160   001+2
 1343         * POP(1)
 1344                MA    @I9I@,X2                                                 7 11419  # S3E 094          160 13235     094
 1345                CW    1&X2                                                     4 11426  ) 0!1              160   001+2
 1346         * PUSH(@00000@:5)
 1347                SW    1&X2                                                     4 11430  , 0!1              160   001+2
1                                                                                                         PAGE   26
0 SEQ PG LIN  LABEL  OP    OPERANDS                                            SFX CT  LOCN  INSTRUCTION TYPE  CARD A-ADDR  B-ADDR

 1348                MA    @005@,X2                                                 7 11434  # S3H 094          160 13238     094
 1349                MCW   @00000@,0&X2                                             7 11441  M U9C 0!0          161 13493     000+2
 1350                BE    LLEAAA                                                   5 11448  B D5P S            161 11457
 1351                B     LMEAAA                                                   4 11453  B D6M              161 11464
 1352         LLEAAA MCW   @00001@,0&X2                                             7 11457  M U9H 0!0          161 13498     000+2
 1353         LMEAAA NOP                                                            1 11464  N                  161
 1354                MCS   0&X2,0&X2                                                7 11465  Z 0!0 0!0          161   000+2   000+2
 1355         * POP(5)
 1356                MA    @I9E@,X2                                                 7 11472  # S5A 094          161 13251     094
 1357                CW    1&X2                                                     4 11479  ) 0!1              162   001+2
 1358                BCE   LJEAAA,5&X2,                                             8 11483  B F0K 0!5          162 11602     005+2
 1359         * PUSH(5)
 1360                SW    1&X2                                                     4 11491  , 0!1              162   001+2
 1361                MA    @005@,X2                                                 7 11495  # S3H 094          162 13238     094
 1362         * PUSH(@%@:1)
 1363                SW    1&X2                                                     4 11502  , 0!1              162   001+2
 1364                MA    @001@,X2                                                 7 11506  # S3B 094          162 13232     094
 1365                MCW   @%@,0&X2                                                 7 11513  M S2F 0!0          163 13226     000+2
 1366         * PUSH(X3:3)
 1367                SW    1&X2                                                     4 11520  , 0!1              163   001+2
 1368                MA    @003@,X2                                                 7 11524  # S2I 094          163 13229     094
 1369                MCW   X3,0&X2                                                  7 11531  M 099 0!0          163   099     000+2
 1370                MCW   X2,X3                                                    7 11538  M 094 099          163   094     099
 1371                B     LBAAAA                                                   4 11545  B K8U              163  6284
 1372         * POP(X3:3)
 1373                MCW   0&X2,X3                                                  7 11549  M 0!0 099          164   000+2   099
 1374                MA    @I9G@,X2                                                 7 11556  # S5G 094          164 13257     094
 1375                CW    1&X2                                                     4 11563  ) 0!1              164   001+2
 1376         * POP(1)
 1377                MA    @I9I@,X2                                                 7 11567  # S3E 094          164 13235     094
 1378                CW    1&X2                                                     4 11574  ) 0!1              164   001+2
 1379         * POP(5)
 1380                MA    @I9E@,X2                                                 7 11578  # S5A 094          164 13251     094
 1381                CW    1&X2                                                     4 11585  ) 0!1              165   001+2
 1382         LVAAAA NOP                                                            1 11589  N                  165
 1383                BCE   LUAAAA,RF,R                                              8 11590  B 72? 150 R        165 12720     150
 1384                B     LKEAAA                                                   4 11598  B 71I              165 12719
 1385         LJEAAA NOP                                                            1 11602  N                  165
 1386         * PUSH(7+X3:1)
 1387                SW    1&X2                                                     4 11603  , 0!1              165   001+2
 1388                MA    @001@,X2                                                 7 11607  # S3B 094          165 13232     094
 1389                MCW   7&X3,0&X2                                                7 11614  M 0?7 0!0          166   007+3   000+2
 1390         * PUSH(@C@:1)
 1391                SW    1&X2                                                     4 11621  , 0!1              166   001+2
 1392                MA    @001@,X2                                                 7 11625  # S3B 094          166 13232     094
 1393                MCW   @C@,0&X2                                                 7 11632  M S1C 0!0          166 13213     000+2
 1394                C     0&X2,15999&X2                                            7 11639  C 0!0 IRI          166   000+2 15999+2
 1395         * POP(1)
 1396                MA    @I9I@,X2                                                 7 11646  # S3E 094          166 13235     094
 1397                CW    1&X2                                                     4 11653  ) 0!1              167   001+2
1                                                                                                         PAGE   27
0 SEQ PG LIN  LABEL  OP    OPERANDS                                            SFX CT  LOCN  INSTRUCTION TYPE  CARD A-ADDR  B-ADDR

 1398         * POP(1)
 1399                MA    @I9I@,X2                                                 7 11657  # S3E 094          167 13235     094
 1400                CW    1&X2                                                     4 11664  ) 0!1              167   001+2
 1401         * PUSH(@00000@:5)
 1402                SW    1&X2                                                     4 11668  , 0!1              167   001+2
 1403                MA    @005@,X2                                                 7 11672  # S3H 094          167 13238     094
 1404                MCW   @00000@,0&X2                                             7 11679  M V0C 0!0          167 13503     000+2
 1405                BE    LPEAAA                                                   5 11686  B F9N S            167 11695
 1406                B     LQEAAA                                                   4 11691  B G0K              168 11702
 1407         LPEAAA MCW   @00001@,0&X2                                             7 11695  M V0H 0!0          168 13508     000+2
 1408         LQEAAA NOP                                                            1 11702  N                  168
 1409                MCS   0&X2,0&X2                                                7 11703  Z 0!0 0!0          168   000+2   000+2
 1410         * POP(5)
 1411                MA    @I9E@,X2                                                 7 11710  # S5A 094          168 13251     094
 1412                CW    1&X2                                                     4 11717  ) 0!1              168   001+2
 1413                BCE   LNEAAA,5&X2,                                             8 11721  B I2O 0!5          168 11926     005+2
 1414         * PUSH(5)
 1415                SW    1&X2                                                     4 11729  , 0!1              169   001+2
 1416                MA    @005@,X2                                                 7 11733  # S3H 094          169 13238     094
 1417         * PUSH(@006@:3)
 1418                SW    1&X2                                                     4 11740  , 0!1              169   001+2
 1419                MA    @003@,X2                                                 7 11744  # S2I 094          169 13229     094
 1420                MCW   @006@,0&X2                                               7 11751  M T5H 0!0          169 13358     000+2
 1421                MA    X3,0&X2                                                  7 11758  # 099 0!0          169   099     000+2
 1422         * POP(X1:3)
 1423                MCW   0&X2,X1                                                  7 11765  M 0!0 089          170   000+2   089
 1424                MA    @I9G@,X2                                                 7 11772  # S5G 094          170 13257     094
 1425                CW    1&X2                                                     4 11779  ) 0!1              170   001+2
 1426         * PUSH(0+X1:3)
 1427                SW    1&X2                                                     4 11783  , 0!1              170   001+2
 1428                MA    @003@,X2                                                 7 11787  # S2I 094          170 13229     094
 1429                MCW   0&X1,0&X2                                                7 11794  M 0'0 0!0          170   000+1   000+2
 1430                MA    @I9I@,0&X1                                               7 11801  # S3E 0'0          171 13235     000+1
 1431         * POP(X1:3)
 1432                MCW   0&X2,X1                                                  7 11808  M 0!0 089          171   000+2   089
 1433                MA    @I9G@,X2                                                 7 11815  # S5G 094          171 13257     094
 1434                CW    1&X2                                                     4 11822  ) 0!1              171   001+2
 1435         * PUSH(0+X1:1)
 1436                SW    1&X2                                                     4 11826  , 0!1              171   001+2
 1437                MA    @001@,X2                                                 7 11830  # S3B 094          171 13232     094
 1438                MCW   0&X1,0&X2                                                7 11837  M 0'0 0!0          172   000+1   000+2
 1439         * PUSH(X3:3)
 1440                SW    1&X2                                                     4 11844  , 0!1              172   001+2
 1441                MA    @003@,X2                                                 7 11848  # S2I 094          172 13229     094
 1442                MCW   X3,0&X2                                                  7 11855  M 099 0!0          172   099     000+2
 1443                MCW   X2,X3                                                    7 11862  M 094 099          172   094     099
 1444                B     LBAAAA                                                   4 11869  B K8U              172  6284
 1445         * POP(X3:3)
 1446                MCW   0&X2,X3                                                  7 11873  M 0!0 099          173   000+2   099
 1447                MA    @I9G@,X2                                                 7 11880  # S5G 094          173 13257     094
1                                                                                                         PAGE   28
0 SEQ PG LIN  LABEL  OP    OPERANDS                                            SFX CT  LOCN  INSTRUCTION TYPE  CARD A-ADDR  B-ADDR

 1448                CW    1&X2                                                     4 11887  ) 0!1              173   001+2
 1449         * POP(1)
 1450                MA    @I9I@,X2                                                 7 11891  # S3E 094          173 13235     094
 1451                CW    1&X2                                                     4 11898  ) 0!1              173   001+2
 1452         * POP(5)
 1453                MA    @I9E@,X2                                                 7 11902  # S5A 094          173 13251     094
 1454                CW    1&X2                                                     4 11909  ) 0!1              174   001+2
 1455         LWAAAA NOP                                                            1 11913  N                  174
 1456                BCE   LUAAAA,RF,R                                              8 11914  B 72? 150 R        174 12720     150
 1457                B     LOEAAA                                                   4 11922  B 71H              174 12718
 1458         LNEAAA NOP                                                            1 11926  N                  174
 1459         * PUSH(7+X3:1)
 1460                SW    1&X2                                                     4 11927  , 0!1              174   001+2
 1461                MA    @001@,X2                                                 7 11931  # S3B 094          174 13232     094
 1462                MCW   7&X3,0&X2                                                7 11938  M 0?7 0!0          175   007+3   000+2
 1463         * PUSH(@S@:1)
 1464                SW    1&X2                                                     4 11945  , 0!1              175   001+2
 1465                MA    @001@,X2                                                 7 11949  # S3B 094          175 13232     094
 1466                MCW   @S@,0&X2                                                 7 11956  M V0I 0!0          175 13509     000+2
 1467                C     0&X2,15999&X2                                            7 11963  C 0!0 IRI          175   000+2 15999+2
 1468         * POP(1)
 1469                MA    @I9I@,X2                                                 7 11970  # S3E 094          175 13235     094
 1470                CW    1&X2                                                     4 11977  ) 0!1              176   001+2
 1471         * POP(1)
 1472                MA    @I9I@,X2                                                 7 11981  # S3E 094          176 13235     094
 1473                CW    1&X2                                                     4 11988  ) 0!1              176   001+2
 1474         * PUSH(@00000@:5)
 1475                SW    1&X2                                                     4 11992  , 0!1              176   001+2
 1476                MA    @005@,X2                                                 7 11996  # S3H 094          176 13238     094
 1477                MCW   @00000@,0&X2                                             7 12003  M V1D 0!0          176 13514     000+2
 1478                BE    LTEAAA                                                   5 12010  B 01I S            176 12019
 1479                B     LUEAAA                                                   4 12015  B 02F              177 12026
 1480         LTEAAA MCW   @00001@,0&X2                                             7 12019  M V1I 0!0          177 13519     000+2
 1481         LUEAAA NOP                                                            1 12026  N                  177
 1482                MCS   0&X2,0&X2                                                7 12027  Z 0!0 0!0          177   000+2   000+2
 1483         * POP(5)
 1484                MA    @I9E@,X2                                                 7 12034  # S5A 094          177 13251     094
 1485                CW    1&X2                                                     4 12041  ) 0!1              177   001+2
 1486                BCE   LREAAA,5&X2,                                             8 12045  B 31E 0!5          177 12315     005+2
 1487         * PUSH(5)
 1488                SW    1&X2                                                     4 12053  , 0!1              178   001+2
 1489                MA    @005@,X2                                                 7 12057  # S3H 094          178 13238     094
 1490         * PUSH(6+X3:3)
 1491                SW    1&X2                                                     4 12064  , 0!1              178   001+2
 1492                MA    @003@,X2                                                 7 12068  # S2I 094          178 13229     094
 1493                MCW   6&X3,0&X2                                                7 12075  M 0?6 0!0          178   006+3   000+2
 1494         * POP(X1:3)
 1495                MCW   0&X2,X1                                                  7 12082  M 0!0 089          178   000+2   089
 1496                MA    @I9G@,X2                                                 7 12089  # S5G 094          179 13257     094
 1497                CW    1&X2                                                     4 12096  ) 0!1              179   001+2
1                                                                                                         PAGE   29
0 SEQ PG LIN  LABEL  OP    OPERANDS                                            SFX CT  LOCN  INSTRUCTION TYPE  CARD A-ADDR  B-ADDR

 1498         * PUSH(0+X1:3)
 1499                SW    1&X2                                                     4 12100  , 0!1              179   001+2
 1500                MA    @003@,X2                                                 7 12104  # S2I 094          179 13229     094
 1501                MCW   0&X1,0&X2                                                7 12111  M 0'0 0!0          179   000+1   000+2
 1502         * PUSH(X3:3)
 1503                SW    1&X2                                                     4 12118  , 0!1              179   001+2
 1504                MA    @003@,X2                                                 7 12122  # S2I 094          180 13229     094
 1505                MCW   X3,0&X2                                                  7 12129  M 099 0!0          180   099     000+2
 1506                MCW   X2,X3                                                    7 12136  M 094 099          180   094     099
 1507                B     LHAAAA                                                   4 12143  B B7'              180  7270
 1508         * POP(X3:3)
 1509                MCW   0&X2,X3                                                  7 12147  M 0!0 099          180   000+2   099
 1510                MA    @I9G@,X2                                                 7 12154  # S5G 094          180 13257     094
 1511                CW    1&X2                                                     4 12161  ) 0!1              181   001+2
 1512         * POP(3)
 1513                MA    @I9G@,X2                                                 7 12165  # S5G 094          181 13257     094
 1514                CW    1&X2                                                     4 12172  ) 0!1              181   001+2
 1515         * POP(5)
 1516                MA    @I9E@,X2                                                 7 12176  # S5A 094          181 13251     094
 1517                CW    1&X2                                                     4 12183  ) 0!1              181   001+2
 1518         * PUSH(6+X3:3)
 1519                SW    1&X2                                                     4 12187  , 0!1              181   001+2
 1520                MA    @003@,X2                                                 7 12191  # S2I 094          181 13229     094
 1521                MCW   6&X3,0&X2                                                7 12198  M 0?6 0!0          182   006+3   000+2
 1522         * PUSH(@I9G@:3)
 1523                SW    1&X2                                                     4 12205  , 0!1              182   001+2
 1524                MA    @003@,X2                                                 7 12209  # S2I 094          182 13229     094
 1525                MCW   @I9G@,0&X2                                               7 12216  M S5G 0!0          182 13257     000+2
 1526                MA    0&X2,15997&X2                                            7 12223  # 0!0 IRG          182   000+2 15997+2
 1527         * POP(3)
 1528                MA    @I9G@,X2                                                 7 12230  # S5G 094          182 13257     094
 1529                CW    1&X2                                                     4 12237  ) 0!1              183   001+2
 1530         * PUSH(@006@:3)
 1531                SW    1&X2                                                     4 12241  , 0!1              183   001+2
 1532                MA    @003@,X2                                                 7 12245  # S2I 094          183 13229     094
 1533                MCW   @006@,0&X2                                               7 12252  M T5H 0!0          183 13358     000+2
 1534                MA    X3,0&X2                                                  7 12259  # 099 0!0          183   099     000+2
 1535         * POP(X1:3)
 1536                MCW   0&X2,X1                                                  7 12266  M 0!0 089          183   000+2   089
 1537                MA    @I9G@,X2                                                 7 12273  # S5G 094          184 13257     094
 1538                CW    1&X2                                                     4 12280  ) 0!1              184   001+2
 1539         * POP(0+X1:3)
 1540                MCW   0&X2,0&X1                                                7 12284  M 0!0 0'0          184   000+2   000+1
 1541                MA    @I9G@,X2                                                 7 12291  # S5G 094          184 13257     094
 1542                CW    1&X2                                                     4 12298  ) 0!1              184   001+2
 1543         LXAAAA NOP                                                            1 12302  N                  184
 1544                BCE   LUAAAA,RF,R                                              8 12303  B 72? 150 R        184 12720     150
 1545                B     LSEAAA                                                   4 12311  B 71G              185 12717
 1546         LREAAA NOP                                                            1 12315  N                  185
 1547         * PUSH(7+X3:1)
1                                                                                                         PAGE   30
0 SEQ PG LIN  LABEL  OP    OPERANDS                                            SFX CT  LOCN  INSTRUCTION TYPE  CARD A-ADDR  B-ADDR

 1548                SW    1&X2                                                     4 12316  , 0!1              185   001+2
 1549                MA    @001@,X2                                                 7 12320  # S3B 094          185 13232     094
 1550                MCW   7&X3,0&X2                                                7 12327  M 0?7 0!0          185   007+3   000+2
 1551         * PUSH(@D@:1)
 1552                SW    1&X2                                                     4 12334  , 0!1              185   001+2
 1553                MA    @001@,X2                                                 7 12338  # S3B 094          185 13232     094
 1554                MCW   @D@,0&X2                                                 7 12345  M S1B 0!0          186 13212     000+2
 1555                C     0&X2,15999&X2                                            7 12352  C 0!0 IRI          186   000+2 15999+2
 1556         * POP(1)
 1557                MA    @I9I@,X2                                                 7 12359  # S3E 094          186 13235     094
 1558                CW    1&X2                                                     4 12366  ) 0!1              186   001+2
 1559         * POP(1)
 1560                MA    @I9I@,X2                                                 7 12370  # S3E 094          186 13235     094
 1561                CW    1&X2                                                     4 12377  ) 0!1              186   001+2
 1562         * PUSH(@00000@:5)
 1563                SW    1&X2                                                     4 12381  , 0!1              187   001+2
 1564                MA    @005@,X2                                                 7 12385  # S3H 094          187 13238     094
 1565                MCW   @00000@,0&X2                                             7 12392  M V2D 0!0          187 13524     000+2
 1566                BE    LXEAAA                                                   5 12399  B 40H S            187 12408
 1567                B     LYEAAA                                                   4 12404  B 41E              187 12415
 1568         LXEAAA MCW   @00001@,0&X2                                             7 12408  M V2I 0!0          187 13529     000+2
 1569         LYEAAA NOP                                                            1 12415  N                  187
 1570                MCS   0&X2,0&X2                                                7 12416  Z 0!0 0!0          188   000+2   000+2
 1571         * POP(5)
 1572                MA    @I9E@,X2                                                 7 12423  # S5A 094          188 13251     094
 1573                CW    1&X2                                                     4 12430  ) 0!1              188   001+2
 1574                BCE   LVEAAA,5&X2,                                             8 12434  B 70D 0!5          188 12704     005+2
 1575         * PUSH(5)
 1576                SW    1&X2                                                     4 12442  , 0!1              188   001+2
 1577                MA    @005@,X2                                                 7 12446  # S3H 094          188 13238     094
 1578         * PUSH(6+X3:3)
 1579                SW    1&X2                                                     4 12453  , 0!1              189   001+2
 1580                MA    @003@,X2                                                 7 12457  # S2I 094          189 13229     094
 1581                MCW   6&X3,0&X2                                                7 12464  M 0?6 0!0          189   006+3   000+2
 1582         * POP(X1:3)
 1583                MCW   0&X2,X1                                                  7 12471  M 0!0 089          189   000+2   089
 1584                MA    @I9G@,X2                                                 7 12478  # S5G 094          189 13257     094
 1585                CW    1&X2                                                     4 12485  ) 0!1              189   001+2
 1586         * PUSH(0+X1:5)
 1587                SW    1&X2                                                     4 12489  , 0!1              190   001+2
 1588                MA    @005@,X2                                                 7 12493  # S3H 094          190 13238     094
 1589                MCW   0&X1,0&X2                                                7 12500  M 0'0 0!0          190   000+1   000+2
 1590         * PUSH(X3:3)
 1591                SW    1&X2                                                     4 12507  , 0!1              190   001+2
 1592                MA    @003@,X2                                                 7 12511  # S2I 094          190 13229     094
 1593                MCW   X3,0&X2                                                  7 12518  M 099 0!0          190   099     000+2
 1594                MCW   X2,X3                                                    7 12525  M 094 099          191   094     099
 1595                B     LKAAAA                                                   4 12532  B 17Q              191  8178
 1596         * POP(X3:3)
 1597                MCW   0&X2,X3                                                  7 12536  M 0!0 099          191   000+2   099
1                                                                                                         PAGE   31
0 SEQ PG LIN  LABEL  OP    OPERANDS                                            SFX CT  LOCN  INSTRUCTION TYPE  CARD A-ADDR  B-ADDR

 1598                MA    @I9G@,X2                                                 7 12543  # S5G 094          191 13257     094
 1599                CW    1&X2                                                     4 12550  ) 0!1              191   001+2
 1600         * POP(5)
 1601                MA    @I9E@,X2                                                 7 12554  # S5A 094          191 13251     094
 1602                CW    1&X2                                                     4 12561  ) 0!1              192   001+2
 1603         * POP(5)
 1604                MA    @I9E@,X2                                                 7 12565  # S5A 094          192 13251     094
 1605                CW    1&X2                                                     4 12572  ) 0!1              192   001+2
 1606         * PUSH(6+X3:3)
 1607                SW    1&X2                                                     4 12576  , 0!1              192   001+2
 1608                MA    @003@,X2                                                 7 12580  # S2I 094          192 13229     094
 1609                MCW   6&X3,0&X2                                                7 12587  M 0?6 0!0          192   006+3   000+2
 1610         * PUSH(@I9E@:3)
 1611                SW    1&X2                                                     4 12594  , 0!1              192   001+2
 1612                MA    @003@,X2                                                 7 12598  # S2I 094          193 13229     094
 1613                MCW   @I9E@,0&X2                                               7 12605  M S5A 0!0          193 13251     000+2
 1614                MA    0&X2,15997&X2                                            7 12612  # 0!0 IRG          193   000+2 15997+2
 1615         * POP(3)
 1616                MA    @I9G@,X2                                                 7 12619  # S5G 094          193 13257     094
 1617                CW    1&X2                                                     4 12626  ) 0!1              193   001+2
 1618         * PUSH(@006@:3)
 1619                SW    1&X2                                                     4 12630  , 0!1              193   001+2
 1620                MA    @003@,X2                                                 7 12634  # S2I 094          194 13229     094
 1621                MCW   @006@,0&X2                                               7 12641  M T5H 0!0          194 13358     000+2
 1622                MA    X3,0&X2                                                  7 12648  # 099 0!0          194   099     000+2
 1623         * POP(X1:3)
 1624                MCW   0&X2,X1                                                  7 12655  M 0!0 089          194   000+2   089
 1625                MA    @I9G@,X2                                                 7 12662  # S5G 094          194 13257     094
 1626                CW    1&X2                                                     4 12669  ) 0!1              194   001+2
 1627         * POP(0+X1:3)
 1628                MCW   0&X2,0&X1                                                7 12673  M 0!0 0'0          195   000+2   000+1
 1629                MA    @I9G@,X2                                                 7 12680  # S5G 094          195 13257     094
 1630                CW    1&X2                                                     4 12687  ) 0!1              195   001+2
 1631         LYAAAA NOP                                                            1 12691  N                  195
 1632                BCE   LUAAAA,RF,R                                              8 12692  B 72? 150 R        195 12720     150
 1633                B     LWEAAA                                                   4 12700  B 71F              195 12716
 1634         LVEAAA NOP                                                            1 12704  N                  195
 1635         * SET THE RETURN FLAG, SO WE KNOW DO DEALLOCATE OUR STACK
 1636                MCW   @R@,RF                                                   7 12705  M T2H 150          196 13328     150
 1637         * AND BRANCH
 1638                B     LUAAAA                                                   4 12712  B 72?              196 12720
 1639         LWEAAA NOP                                                            1 12716  N                  196
 1640         LSEAAA NOP                                                            1 12717  N                  196
 1641         LOEAAA NOP                                                            1 12718  N                  196
 1642         LKEAAA NOP                                                            1 12719  N                  196
 1643         LUAAAA NOP                                                            1 12720  N                  196
 1644                BCE   LTAAAA,RF,R                                              8 12721  B 73? 150 R        197 12730     150
 1645         LGEAAA NOP                                                            1 12729  N                  197
 1646         LTAAAA NOP                                                            1 12730  N                  197
 1647                BCE   LSAAAA,RF,R                                              8 12731  B 74D 150 R        197 12744     150
1                                                                                                         PAGE   32
0 SEQ PG LIN  LABEL  OP    OPERANDS                                            SFX CT  LOCN  INSTRUCTION TYPE  CARD A-ADDR  B-ADDR

 1648                B     LBEAAA                                                   4 12739  B P0Q              197 10708
 1649         LCEAAA NOP                                                            1 12743  N                  197
 1650         LSAAAA NOP                                                            1 12744  N                  197
 1651                MA    @I9C@,X2                                                 7 12745  # V3B 094          198 13532     094
 1652                CW    1&X3                                                     4 12752  ) 0?1              198   001+3
 1653                CW    4&X3                                                     4 12756  ) 0?4              198   004+3
 1654                CW    7&X3                                                     4 12760  ) 0?7              198   007+3
 1655                MCW   @ @,RF                                                   7 12764  M S6H 150          198 13268     150
 1656                MCW   3&X3,X1                                                  7 12771  M 0?3 089          198   003+3   089
 1657                B     0&X1                                                     4 12778  B 0'0              198   000+1
 1658         LXCAAA SBR   X1                                                       4 12782  H 089              199   089
 1659         * CASTS A 5-DIGIT NUMBER TO A 3-DIGIT ADDRESS
 1660         * MAKE A COPY OF THE TOP OF THE STACK
 1661                SW    1&X2                                                     4 12786  , 0!1              199   001+2
 1662                MCW   0&X2,3&X2                                                7 12790  M 0!0 0!3          199   000+2   003+2
 1663         * ZERO OUT THE ZONE BITS OF OUR COPY
 1664                MZ    @0@,3&X2                                                 7 12797  Y S2E 0!3          199 13225     003+2
 1665                MZ    @0@,2&X2                                                 7 12804  Y S2E 0!2          199 13225     002+2
 1666                MZ    @0@,1&X2                                                 7 12811  Y S2E 0!1          199 13225     001+2
 1667         * SET THE LOW-ORDER DIGIT'S ZONE BITS
 1668                C     @04000@,0&X2                                             7 12818  C V3G 0!0          200 13537     000+2
 1669                BL    LADAAA                                                   5 12825  B 90D T            200 12904
 1670                C     @08000@,0&X2                                             7 12830  C V4B 0!0          200 13542     000+2
 1671                BL    LZCAAA                                                   5 12837  B 89? T            200 12890
 1672                C     @12000@,0&X2                                             7 12842  C V4G 0!0          200 13547     000+2
 1673                BL    LYCAAA                                                   5 12849  B 87B T            200 12872
 1674                S     @12000@,0&X2                                             7 12854  S V5B 0!0          201 13552     000+2
 1675                MZ    @A@,3&X2                                                 7 12861  Y S1E 0!3          201 13215     003+2
 1676                B     LADAAA                                                   4 12868  B 90D              201 12904
 1677         LYCAAA S     @08000@,0&X2                                             7 12872  S V5G 0!0          201 13557     000+2
 1678                MZ    @I@,3&X2                                                 7 12879  Y V5H 0!3          201 13558     003+2
 1679                B     LADAAA                                                   4 12886  B 90D              201 12904
 1680         LZCAAA S     @04000@,0&X2                                             7 12890  S V6C 0!0          202 13563     000+2
 1681                MZ    @S@,3&X2                                                 7 12897  Y V0I 0!3          202 13509     003+2
 1682         * FOR SOME REASON THE ZONE BITS GET SET - IT STILL WORKS THOUGH.
 1683         LADAAA C     @01000@,0&X2                                             7 12904  C V6H 0!0          202 13568     000+2
 1684                BL    LDDAAA                                                   5 12911  B 96I T            202 12969
 1685                C     @02000@,0&X2                                             7 12916  C V7C 0!0          202 13573     000+2
 1686                BL    LCDAAA                                                   5 12923  B 96B T            202 12962
 1687                C     @03000@,0&X2                                             7 12928  C V7H 0!0          203 13578     000+2
 1688                BL    LBDAAA                                                   5 12935  B 95A T            203 12951
 1689                MZ    @A@,1&X2                                                 7 12940  Y S1E 0!1          203 13215     001+2
 1690                B     LDDAAA                                                   4 12947  B 96I              203 12969
 1691         LBDAAA MZ    @I@,1&X2                                                 7 12951  Y V5H 0!1          203 13558     001+2
 1692                B     LDDAAA                                                   4 12958  B 96I              203 12969
 1693         LCDAAA MZ    @S@,1&X2                                                 7 12962  Y V0I 0!1          204 13509     001+2
 1694         LDDAAA MCW   3&X2,15998&X2                                            7 12969  M 0!3 IRH          204   003+2 15998+2
 1695                CW    1&X2                                                     4 12976  ) 0!1              204   001+2
 1696                SBR   X2,15998&X2                                              7 12980  H 094 IRH          204   094   15998+2
 1697                B     0&X1                                                     4 12987  B 0'0              204   000+1
1                                                                                                         PAGE   33
0 SEQ PG LIN  LABEL  OP    OPERANDS                                            SFX CT  LOCN  INSTRUCTION TYPE  CARD A-ADDR  B-ADDR

 1698         LZBAAA SBR   X1                                                       4 12991  H 089              204   089
 1699         * CASTS A 3-DIGIT ADDRESS TO A 5-DIGIT NUMBER
 1700         * MAKE ROOM ON THE STACK FOR AN INT
 1701                MA    @002@,X2                                                 7 12995  # V8A 094          205 13581     094
 1702         * MAKE A COPY OF THE TOP OF THE STACK
 1703                SW    1&X2                                                     4 13002  , 0!1              205   001+2
 1704                MCW   15998&X2,3&X2                                            7 13006  M IRH 0!3          205 15998+2   003+2
 1705         * NOW ZERO OUT THE TOP OF THE STACK
 1706                MCW   @00000@,0&X2                                             7 13013  M V8F 0!0          205 13586     000+2
 1707         * NOW COPY BACK, SHIFTED OVER 2 DIGITS
 1708                MCW   3&X2,0&X2                                                7 13020  M 0!3 0!0          205   003+2   000+2
 1709                CW    1&X2                                                     4 13027  ) 0!1              205   001+2
 1710         * NOW ZERO OUT THE ZONE BITS ON THE STACK
 1711                MZ    @0@,0&X2                                                 7 13031  Y S2E 0!0          206 13225     000+2
 1712                MZ    @0@,15999&X2                                             7 13038  Y S2E IRI          206 13225   15999+2
 1713                MZ    @0@,15998&X2                                             7 13045  Y S2E IRH          206 13225   15998+2
 1714         * CHECK THE HIGH-ORDER DIGIT'S ZONE BITS
 1715                BWZ   LACAAA,1&X2,S                                            8 13052  V '8? 0!1 S        206 13080     001+2
 1716                BWZ   LBCAAA,1&X2,K                                            8 13060  V '9A 0!1 K        206 13091     001+2
 1717                BWZ   LCCAAA,1&X2,B                                            8 13068  V /0B 0!1 B        207 13102     001+2
 1718                B     LDCAAA                                                   4 13076  B /0I              207 13109
 1719         LACAAA A     @01000@,0&X2                                             7 13080  A V9A 0!0          207 13591     000+2
 1720                B     LDCAAA                                                   4 13087  B /0I              207 13109
 1721         LBCAAA A     @02000@,0&X2                                             7 13091  A V9F 0!0          207 13596     000+2
 1722                B     LDCAAA                                                   4 13098  B /0I              207 13109
 1723         LCCAAA A     @03000@,0&X2                                             7 13102  A W0A 0!0          208 13601     000+2
 1724         LDCAAA BWZ   LECAAA,3&X2,S                                            8 13109  V /3G 0!3 S        208 13137     003+2
 1725                BWZ   LFCAAA,3&X2,K                                            8 13117  V /4H 0!3 K        208 13148     003+2
 1726                BWZ   LGCAAA,3&X2,B                                            8 13125  V /5I 0!3 B        208 13159     003+2
 1727                B     LHCAAA                                                   4 13133  B /6F              208 13166
 1728         LECAAA A     @04000@,0&X2                                             7 13137  A W0F 0!0          209 13606     000+2
 1729                B     LHCAAA                                                   4 13144  B /6F              209 13166
 1730         LFCAAA A     @08000@,0&X2                                             7 13148  A W1A 0!0          209 13611     000+2
 1731                B     LHCAAA                                                   4 13155  B /6F              209 13166
 1732         LGCAAA A     @12000@,0&X2                                             7 13159  A W1F 0!0          209 13616     000+2
 1733         LHCAAA B     0&X1                                                     4 13166  B 0'0              209   000+1
 1734         LICAAA SBR   X1                                                       4 13170  H 089              209   089
 1735         * NORMALIZES THE ZONE BITS OF A NUMBER, LEAVING EITHER A=0B=0
 1736         * FOR A POSITIVE OR A=0B=1 FOR A NEGATIVE
 1737         * DO NOTHING ON EITHER NO ZONE BITS OR ONLY A B ZONE BIT
 1738                BWZ   LJCAAA,0&X2,2                                            8 13174  V /9G 0!0 2        210 13197     000+2
 1739                BWZ   LJCAAA,0&X2,K                                            8 13182  V /9G 0!0 K        210 13197     000+2
 1740         * ELSE CLEAR THE ZONE BITS, AS IT IS POSITIVE
 1741                MZ    @ @,0&X2                                                 7 13190  Y S6H 0!0          210 13268     000+2
 1742         LJCAAA B     0&X1                                                     4 13197  B 0'0              210   000+1
                     DCW   @201@                                                    3 13203              LIT    210
                     DCW   @200@                                                    3 13206              LIT    210
                     DCW   @081@                                                    3 13209              LIT    210
                     DCW   @F@                                                      1 13210              LIT    211
                     DCW   @E@                                                      1 13211              LIT    211
1                                                                                                         PAGE   34
0 SEQ PG LIN  LABEL  OP    OPERANDS                                            SFX CT  LOCN  INSTRUCTION TYPE  CARD A-ADDR  B-ADDR

                     DCW   @D@                                                      1 13212              LIT    211
                     DCW   @C@                                                      1 13213              LIT    211
                     DCW   @B@                                                      1 13214              LIT    211
                     DCW   @A@                                                      1 13215              LIT    211
                     DCW   @9@                                                      1 13216              LIT    211
                     DCW   @8@                                                      1 13217              LIT    212
                     DCW   @7@                                                      1 13218              LIT    212
                     DCW   @6@                                                      1 13219              LIT    212
                     DCW   @5@                                                      1 13220              LIT    212
                     DCW   @4@                                                      1 13221              LIT    212
                     DCW   @3@                                                      1 13222              LIT    212
                     DCW   @2@                                                      1 13223              LIT    212
                     DCW   @1@                                                      1 13224              LIT    213
                     DCW   @0@                                                      1 13225              LIT    213
                     DCW   @%@                                                      1 13226              LIT    213
                     DCW   @003@                                                    3 13229              LIT    213
                     DCW   @001@                                                    3 13232              LIT    213
                     DCW   @I9I@                                                    3 13235              LIT    213
                     DCW   @005@                                                    3 13238              LIT    213
                     DCW   @00001@                                                  5 13243              LIT    214
                     DCW   @00000@                                                  5 13248              LIT    214
                     DCW   @I9E@                                                    3 13251              LIT    214
                     DCW   @'03@                                                    3 13254              LIT    214
                     DCW   @I9G@                                                    3 13257              LIT    214
                     DCW   @00001@                                                  5 13262              LIT    214
                     DCW   @00000@                                                  5 13267              LIT    214
                     DCW   @ @                                                      1 13268              LIT    215
                     DCW   @'06@                                                    3 13271              LIT    215
                     DCW   @333@                                                    3 13274              LIT    215
                     DCW   @00000@                                                  5 13279              LIT    215
                     DCW   @00001@                                                  5 13284              LIT    215
                     DCW   @00001@                                                  5 13289              LIT    215
                     DCW   @00000@                                                  5 13294              LIT    215
                     DCW   @0000J@                                                  5 13299              LIT    216
                     DCW   @008@                                                    3 13302              LIT    216
                     DCW   @00001@                                                  5 13307              LIT    216
                     DCW   @00001@                                                  5 13312              LIT    216
                     DCW   @00001@                                                  5 13317              LIT    216
                     DCW   @00001@                                                  5 13322              LIT    216
                     DCW   @00000@                                                  5 13327              LIT    216
                     DCW   @R@                                                      1 13328              LIT    217
                     DCW   @I9B@                                                    3 13331              LIT    217
                     DCW   @00000@                                                  5 13336              LIT    217
                     DCW   @011@                                                    3 13339              LIT    217
                     DCW   @0000J@                                                  5 13344              LIT    217
                     DCW   @00000@                                                  5 13349              LIT    217
                     DCW   @00001@                                                  5 13354              LIT    217
                     DCW   @-@                                                      1 13355              LIT    218
                     DCW   @006@                                                    3 13358              LIT    218
                     DCW   @I9F@                                                    3 13361              LIT    218
1                                                                                                         PAGE   35
0 SEQ PG LIN  LABEL  OP    OPERANDS                                            SFX CT  LOCN  INSTRUCTION TYPE  CARD A-ADDR  B-ADDR

                     DCW   @00001@                                                  5 13366              LIT    218
                     DCW   @00000@                                                  5 13371              LIT    218
                     DCW   @00001@                                                  5 13376              LIT    218
                     DCW   @00006@                                                  5 13381              LIT    218
                     DCW   @00000@                                                  5 13386              LIT    219
                     DCW   @00001@                                                  5 13391              LIT    219
                     DCW   @00000@                                                  5 13396              LIT    219
                     DCW   @00001@                                                  5 13401              LIT    219
                     DCW   @00005@                                                  5 13406              LIT    219
                     DCW   @00001@                                                  5 13411              LIT    219
                     DCW   @00000@                                                  5 13416              LIT    219
                     DCW   @00005@                                                  5 13421              LIT    220
                     DCW   @00000@                                                  5 13426              LIT    220
                     DCW   @00000@                                                  5 13431              LIT    220
                     DCW   @00001@                                                  5 13436              LIT    220
                     DCW   @00001@                                                  5 13441              LIT    220
                     DCW   @I8I@                                                    3 13444              LIT    220
                     DCW   @00052@                                                  5 13449              LIT    220
                     DCW   @'35@                                                    3 13452              LIT    221
                     DCW   @I9D@                                                    3 13455              LIT    221
                     DCW   @00001@                                                  5 13460              LIT    221
                     DCW   @00000@                                                  5 13465              LIT    221
                     DCW   @007@                                                    3 13468              LIT    221
                     DCW   @00001@                                                  5 13473              LIT    221
                     DCW   @00000@                                                  5 13478              LIT    221
                     DCW   @00001@                                                  5 13483              LIT    222
                     DCW   @00000@                                                  5 13488              LIT    222
                     DCW   @00000@                                                  5 13493              LIT    222
                     DCW   @00001@                                                  5 13498              LIT    222
                     DCW   @00000@                                                  5 13503              LIT    222
                     DCW   @00001@                                                  5 13508              LIT    222
                     DCW   @S@                                                      1 13509              LIT    222
                     DCW   @00000@                                                  5 13514              LIT    223
                     DCW   @00001@                                                  5 13519              LIT    223
                     DCW   @00000@                                                  5 13524              LIT    223
                     DCW   @00001@                                                  5 13529              LIT    223
                     DCW   @I9C@                                                    3 13532              LIT    223
                     DCW   @04000@                                                  5 13537              LIT    223
                     DCW   @08000@                                                  5 13542              LIT    223
                     DCW   @12000@                                                  5 13547              LIT    224
                     DCW   @12000@                                                  5 13552              LIT    224
                     DCW   @08000@                                                  5 13557              LIT    224
                     DCW   @I@                                                      1 13558              LIT    224
                     DCW   @04000@                                                  5 13563              LIT    224
                     DCW   @01000@                                                  5 13568              LIT    224
                     DCW   @02000@                                                  5 13573              LIT    224
                     DCW   @03000@                                                  5 13578              LIT    225
                     DCW   @002@                                                    3 13581              LIT    225
                     DCW   @00000@                                                  5 13586              LIT    225
                     DCW   @01000@                                                  5 13591              LIT    225
1                                                                                                         PAGE   36
0 SEQ PG LIN  LABEL  OP    OPERANDS                                            SFX CT  LOCN  INSTRUCTION TYPE  CARD A-ADDR  B-ADDR

                     DCW   @02000@                                                  5 13596              LIT    225
                     DCW   @03000@                                                  5 13601              LIT    225
                     DCW   @04000@                                                  5 13606              LIT    225
                     DCW   @08000@                                                  5 13611              LIT    226
                     DCW   @12000@                                                  5 13616              LIT    226
 1743                END   START                                                             / !0' 080               6000
1                                                                                                         PAGE   37
0SYMBOL   ADDRESS    SYMBOL   ADDRESS    SYMBOL   ADDRESS    SYMBOL   ADDRESS    SYMBOL   ADDRESS    SYMBOL   ADDRESS

 EOL      0346: 0    EOS      0345: 0    LACAAA  13080: 0    LADAAA  12904: 0    LAEAAA  10501: 0    LBAAAA   6284: 0
 LBCAAA  13091: 0    LBDAAA  12951: 0    LBEAAA  10708: 0    LCAAAA   7240: 0    LCBAAA   7676: 0    LCCAAA  13102: 0
 LCDAAA  12962: 0    LCEAAA  12743: 0    LDAAAA   6540: 0    LDBAAA   8144: 0    LDCAAA  13109: 0    LDDAAA  12969: 0
 LDEAAA  10937: 0    LEAAAA   6949: 0    LEBAAA  10207: 0    LECAAA  13137: 0    LEDAAA   8531: 0    LEEAAA  10944: 0
 LFAAAA   6790: 0    LFBAAA  10533: 0    LFCAAA  13148: 0    LFDAAA   8303: 0    LFEAAA  11199: 0    LGAAAA   7230: 0
 LGCAAA  13159: 0    LGDAAA   8310: 0    LGEAAA  12729: 0    LHAAAA   7270: 0    LHCAAA  13166: 0    LHDAAA   8733: 0
 LHEAAA  11063: 0    LIAAAA   7646: 0    LICAAA  13170: 0    LIDAAA   9242: 0    LIEAAA  11070: 0    LJAAAA   7632: 0
 LJCAAA  13197: 0    LJDAAA   9080: 0    LJEAAA  11602: 0    LKAAAA   8178: 0    LKCAAA   6641: 0    LKDAAA   9087: 0
 LKEAAA  12719: 0    LLAAAA   9989: 0    LLCAAA   6648: 0    LLDAAA   8930: 0    LLEAAA  11457: 0    LMAAAA   8522: 0
 LMCAAA   7239: 0    LMDAAA   8937: 0    LMEAAA  11464: 0    LNAAAA   9229: 0    LNCAAA   7051: 0    LNDAAA   9042: 0
 LNEAAA  11926: 0    LOAAAA   9453: 0    LOCAAA   7058: 0    LODAAA   9049: 0    LOEAAA  12718: 0    LPAAAA   9979: 0
 LPCAAA   7285: 0    LPDAAA   9466: 0    LPEAAA  11695: 0    LQAAAA   9965: 0    LQCAAA   7645: 0    LQDAAA   9988: 0
 LQEAAA  11702: 0    LRAAAA  10563: 0    LRBAAA  10027: 0    LRCAAA   7414: 0    LRDAAA   9321: 0    LREAAA  12315: 0
 LSAAAA  12744: 0    LSBAAA  10177: 0    LSCAAA   7421: 0    LSDAAA   9328: 0    LSEAAA  12717: 0    LTAAAA  12730: 0
 LTBAAA   6553: 0    LTCAAA   7702: 0    LTDAAA   9582: 0    LTEAAA  12019: 0    LUAAAA  12720: 0    LUBAAA   6958: 0
 LUCAAA   8096: 0    LUDAAA   9978: 0    LUEAAA  12026: 0    LVAAAA  11589: 0    LVBAAA   6391: 0    LVCAAA   8058: 0
 LVDAAA   9697: 0    LVEAAA  12704: 0    LWAAAA  11913: 0    LWBAAA   6398: 0    LWCAAA   8065: 0    LWDAAA   9704: 0
 LWEAAA  12716: 0    LXAAAA  12302: 0    LXBAAA   6554: 0    LXCAAA  12782: 0    LXDAAA  10222: 0    LXEAAA  12408: 0
 LYAAAA  12691: 0    LYBAAA   6803: 0    LYCAAA  12872: 0    LYDAAA  10532: 0    LYEAAA  12415: 0    LZBAAA  12991: 0
 LZCAAA  12890: 0    LZDAAA  10494: 0    PRCPOS   0335: 0    PRINT    0201: 0    PRTSIZ   0344: 0    PUCPOS   0338: 0
 PUNCH    0101: 0    PUNSIZ   0341: 0    READ     0001: 0    RF       0150: 0    START    6000: 0    X1       0089: 0
 X2       0094: 0    X3       0099: 0

0UNREFERENCED SYMBOLS

 LCBAAA LDAAAA LEBAAA LFAAAA LFBAAA LGAAAA LJAAAA LMAAAA LNAAAA LOAAAA LQAAAA LSBAAA LVAAAA LWAAAA LXAAAA LYAAAA PRCPOS
 PRINT  PRTSIZ PUCPOS PUNCH  PUNSIZ READ
